AZAN5ED ZANDER/SDI GP941 V2.09
HFDTE290615
HFFXA050
HFPLT Pilot             :MANFRED GIGER                           
HFGTY Glider type       :ASW28                                   
HFGID Glider ID         :HB-3403   
HFDTM100 GPS Datum      :WGS84
HFRFW Firmware Version  :09
HFRHW Hardware version  :2
HFFTY FR Type           :ZANDER/SDI GP941
HFGPS                   :Garmin,GPS25,12,30000
HFPRS Press Alt Sensor  :Intersema,MS5534A,10000
HFCCL Competition Class :18m                                     
HFCID Competition ID    :7S        
I023638IAS3941ENL
J020810WDI1113WVE
LZAN 115925 PowerOn
C270615082925270615000102
C4710283N00902366E SCHAENIS    
C4708866N00907250E DURSCHLEGI  
C4702400N00947216E SCHWEIZER TO
C4644416N00933416E ROTHORNBAHN 
C4708866N00907250E DURSCHLEGI  
C4710283N00902366E SCHAENIS    
B1159294710279N00902433EV0034000000005000
B1159334710279N00902433EV0034000000002000
B1159374710279N00902433EV0034000000001000
B1159414710279N00902433EV0034000000004000
B1159454710279N00902433EV0034000000006000
B1159494710279N00902433EV0034100000009000
B1159534710279N00902433EV0034100000008000
B1159574710279N00902433EV0034000000006000
B1200014710279N00902433EV0034000000010000
B1200054710191N00902383EA0034100416008000
B1200094710195N00902379EA0034000424009000
B1200134710191N00902379EA0034100424009000
B1200174710191N00902383EA0034100424008000
B1200214710191N00902383EA0034100424008000
B1200254710191N00902383EA0034100424008000
B1200294710191N00902383EA0034300424007000
B1200334710191N00902383EA0034300424009000
B1200374710191N00902383EA0034300424008000
B1200414710191N00902383EA0034300424009000
B1200454710191N00902383EA0034300424009000
B1200494710191N00902383EA0034300424010000
B1200534710191N00902383EA0034300416007000
B1200574710191N00902383EA0034300424006000
B1201014710191N00902383EA0034300424006000
B1201054710191N00902383EA0034300424005000
B1201094710191N00902383EA0034300424002000
B1201134710191N00902383EA0034300424004000
B1201174710191N00902383EA0034300424004000
B1201214710191N00902383EA0034300416006000
B1201254710191N00902383EA0034300416008000
B1201294710191N00902383EA0034300416005000
B1201334710191N00902383EA0034300424007000
B1201374710191N00902383EA0034200424007000
B1201414710191N00902383EA0034200416006000
B1201454710191N00902383EA0034300416006000
B1201494710191N00902383EA0034300416006000
B1201534710191N00902383EA0034300416006000
B1201574710191N00902383EA0034300416009000
B1202014710191N00902379EA0034300416006000
B1202054710191N00902379EA0034300416006000
B1202094710191N00902379EA0034300416006000
B1202134710191N00902379EA0034300416006000
B1202174710191N00902379EA0034300416009000
B1202214710191N00902379EA0034300416008000
B1202254710195N00902379EA0034300416008000
B1202294710195N00902379EA0034300416008000
B1202334710195N00902379EA0034300416009000
B1202374710195N00902379EA0034300416009000
B1202414710191N00902379EA0034300416010000
B1202454710191N00902379EA0034300416008000
B1202494710191N00902379EA0034300416009000
B1202534710195N00902379EA0034300416007000
B1202574710195N00902379EA0034300416007000
B1203014710191N00902379EA0034300416006000
B1203054710191N00902379EA0034300416005000
B1203094710191N00902383EA0034200416005000
B1203134710191N00902383EA0034200416006000
B1203174710191N00902383EA0034200416006000
B1203214710191N00902383EA0034200416004000
B1203254710191N00902383EA0034200416004000
B1203294710191N00902383EA0034200416007000
B1203334710191N00902383EA0034200416009000
B1203374710191N00902383EA0034200416009000
B1203414710191N00902383EA0034300416007000
B1203454710191N00902383EA0034300416007000
B1203494710191N00902383EA0034300416008000
B1203534710191N00902383EA0034300416004000
B1203574710187N00902387EA0034300416003000
B1204014710187N00902387EA0034200416006000
B1204054710187N00902387EA0034400416007004
B1204094710187N00902387EA0034400416004000
B1204134710187N00902387EA0034400416007000
B1204174710187N00902387EA0034400416007000
B1204214710187N00902387EA0034400416007000
B1204254710187N00902387EA0034400416005000
B1204294710187N00902387EA0034400416004000
B1204334710187N00902387EA0034400416005000
B1204374710187N00902387EA0034400416004000
B1204414710187N00902387EA0034400416006000
B1204454710183N00902387EA0034400408001000
B1204494710183N00902387EA0034400416004000
B1204534710187N00902387EA0034300416001000
B1204574710183N00902387EA0034300416000000
B1205014710183N00902387EA0034300416001000
B1205054710183N00902387EA0034300408000000
B1205094710183N00902387EA0034300408000000
B1205134710183N00902387EA0034300408002000
B1205174710183N00902387EA0034300408002000
B1205214710183N00902387EA0034300408000000
B1205254710183N00902387EA0034300408002000
B1205294710183N00902387EA0034300408001000
B1205334710183N00902387EA0034300408000000
B1205374710183N00902387EA0034300408003000
B1205414710183N00902387EA0034300408000000
B1205454710187N00902387EA0034300408000000
B1205494710187N00902387EA0034300416000000
B1205534710187N00902387EA0034300408000000
B1205574710187N00902387EA0034300416000008
B1206014710187N00902387EA0034300416000004
B1206054710187N00902387EA0034300416000008
B1206094710187N00902387EA0034300408000008
B1206134710187N00902387EA0034300408001012
B1206174710187N00902387EA0034300408002008
B1206214710187N00902387EA0034300408001008
B1206254710187N00902387EA0034300408002008
B1206294710187N00902387EA0034300408001008
B1206334710187N00902387EA0034300408000008
B1206374710187N00902387EA0034300408001012
B1206414710187N00902387EA0034300408001008
B1206454710187N00902387EA0034300408001008
B1206494710187N00902387EA0034300416004008
B1206534710187N00902387EA0034300416002012
B1206574710187N00902387EA0034300416003008
B1207014710187N00902387EA0034300416003012
B1207054710187N00902387EA0034300416002012
B1207094710187N00902387EA0034300416005056
B1207134710187N00902387EA0034300416004032
B1207174710187N00902387EA0034300416001076
B1207214710187N00902387EA0034300416006064
B1207254710187N00902387EA0034300416005008
B1207294710187N00902387EA0034300416006040
B1207334710187N00902387EA0034300416005008
B1207374710187N00902387EA0034300416003008
B1207414710187N00902387EA0034300416006000
B1207454710187N00902387EA0034300416006004
B1207494710187N00902387EA0034300416007000
B1207534710187N00902387EA0034300416008000
B1207574710187N00902387EA0034300416008000
B1208014710187N00902387EA0034300416006000
B1208054710187N00902387EA0034300416006000
B1208094710187N00902387EA0034300416006000
B1208134710187N00902387EA0034300416007000
B1208174710187N00902387EA0034300416006000
B1208214710187N00902387EA0034300416004004
B1208254710187N00902387EA0034300416006000
B1208294710187N00902387EA0034300416008004
B1208334710187N00902387EA0034300416008004
B1208374710187N00902387EA0034300416008004
B1208414710187N00902387EA0034300416008004
B1208454710187N00902387EA0034300416009004
B1208494710187N00902387EA0034300416010004
B1208534710187N00902387EA0034300416010004
B1208574710187N00902387EA0034300416011004
B1209014710187N00902387EA0034300416011004
B1209054710187N00902387EA0034300416010004
B1209094710187N00902387EA0034300416011004
B1209134710187N00902387EA0034400424008004
B1209174710187N00902387EA0034300424009004
B1209214710187N00902387EA0034300424006004
B1209254710187N00902387EA0034300424006000
B1209294710187N00902387EA0034300424006000
B1209334710187N00902387EA0034300424009000
B1209374710187N00902387EA0034300424009000
B1209414710187N00902387EA0034300424008000
B1209454710187N00902387EA0034300424008000
B1209494710187N00902387EA0034300424009000
B1209534710187N00902387EA0034300424009000
B1209574710187N00902387EA0034300424008000
B1210014710187N00902387EA0034300424008000
B1210054710187N00902387EA0034300424007000
B1210094710187N00902387EA0034300424009000
B1210134710187N00902387EA0034300424008000
B1210174710187N00902387EA0034300424009000
B1210214710187N00902387EA0034300424009000
B1210254710187N00902387EA0034300424009000
B1210294710187N00902391EA0034300424008004
B1210334710187N00902391EA0034300424006000
B1210374710187N00902391EA0034300424007000
B1210414710187N00902391EA0034300424006000
B1210454710187N00902391EA0034300424007000
B1210494710187N00902391EA0034300424007000
B1210534710187N00902391EA0034300424007000
B1210574710187N00902391EA0034300424007000
B1211014710187N00902391EA0034300424007000
B1211054710187N00902387EA0034300424007000
B1211094710187N00902387EA0034300424007000
B1211134710187N00902387EA0034300424006000
B1211174710187N00902387EA0034300416005000
B1211214710187N00902387EA0034300416006000
B1211254710187N00902387EA0034300416007000
B1211294710187N00902387EA0034300416005000
B1211334710187N00902387EA0034300416006000
B1211374710187N00902387EA0034300416004000
B1211414710187N00902387EA0034300416005000
B1211454710187N00902387EA0034300416005000
B1211494710187N00902391EA0034300416006000
B1211534710187N00902391EA0034300424004000
B1211574710187N00902391EA0034300424005000
B1212014710187N00902391EA0034300424006000
B1212054710187N00902391EA0034300424005000
B1212094710187N00902391EA0034300416005000
B1212134710187N00902387EA0034300416004000
B1212174710187N00902391EA0034300416005000
B1212214710187N00902391EA0034300416005000
B1212254710187N00902391EA0034300416005000
B1212294710187N00902391EA0034300416003000
B1212334710187N00902391EA0034300416002000
B1212374710187N00902391EA0034300416001000
B1212414710187N00902391EA0034300416002000
B1212454710187N00902391EA0034300416002000
B1212494710187N00902391EA0034300416002000
B1212534710187N00902391EA0034300416003000
B1212574710187N00902391EA0034300416003000
B1213014710187N00902391EA0034300416002000
B1213054710187N00902391EA0034300416005000
B1213094710187N00902387EA0034300416007000
B1213134710187N00902387EA0034300416008000
B1213174710187N00902391EA0034400416009000
B1213214710187N00902391EA0034400416008000
B1213254710187N00902391EA0034400416008000
B1213294710187N00902391EA0034400416007000
B1213334710187N00902387EA0034400416006000
B1213374710187N00902387EA0034400416006000
B1213414710187N00902387EA0034400416006000
B1213454710187N00902387EA0034400416007000
B1213494710187N00902387EA0034400416005000
B1213534710187N00902387EA0034400416007000
B1213574710187N00902387EA0034400416008000
B1214014710187N00902387EA0034400416007000
B1214054710187N00902387EA0034400416006000
B1214094710187N00902387EA0034400416007000
B1214134710187N00902387EA0034400416006000
B1214174710187N00902387EA0034400424009000
B1214214710187N00902387EA0034400424008000
B1214254710187N00902391EA0034400424007000
B1214294710187N00902391EA0034400424006000
B1214334710187N00902391EA0034500424005000
B1214374710187N00902391EA0034500424005000
B1214414710187N00902391EA0034400424005000
B1214454710187N00902391EA0034400424004000
B1214494710187N00902391EA0034400424004000
B1214534710187N00902391EA0034500424007000
B1214574710187N00902391EA0034500416007000
B1215014710187N00902391EA0034500416007000
B1215054710187N00902391EA0034500416009000
B1215094710187N00902391EA0034500416008000
B1215134710187N00902391EA0034500416007000
B1215174710187N00902391EA0034500416008000
B1215214710187N00902391EA0034500424008000
B1215254710187N00902391EA0034500424008000
B1215294710187N00902391EA0034500424008000
B1215334710187N00902391EA0034500424008000
B1215374710187N00902391EA0034500424007000
B1215414710187N00902391EA0034500424008000
B1215454710187N00902391EA0034400424007000
B1215494710187N00902391EA0034400416007000
B1215534710187N00902391EA0034400416007000
B1215574710187N00902391EA0034400416005000
B1216014710191N00902391EA0034400424004000
B1216054710191N00902387EA0034400424005000
B1216094710191N00902391EA0034400424005000
B1216134710191N00902391EA0034400424004000
B1216174710187N00902391EA0034400424004000
B1216214710187N00902391EA0034400424006000
B1216254710187N00902391EA0034400424006000
B1216294710187N00902391EA0034400424004000
B1216334710187N00902391EA0034400424006000
B1216374710187N00902391EA0034400424006000
B1216414710187N00902391EA0034400424005000
B1216454710187N00902391EA0034400424005000
B1216494710187N00902391EA0034400424004000
B1216534710187N00902391EA0034400424003000
B1216574710187N00902391EA0034400424004000
B1217014710187N00902391EA0034400416002000
B1217054710187N00902391EA0034400416005000
B1217094710187N00902387EA0034400416005004
B1217134710187N00902387EA0034400416006000
B1217174710187N00902387EA0034200416004000
B1217214710187N00902387EA0034300416001000
B1217254710187N00902387EA0034300424003000
B1217294710187N00902387EA0034300424002000
B1217334710187N00902387EA0034300424005000
B1217374710187N00902387EA0034300424000000
B1217414710187N00902387EA0034300424002000
B1217454710187N00902387EA0034300424000000
B1217494710187N00902387EA0034300424002000
B1217534710187N00902387EA0034300424000000
B1217574710187N00902387EA0034300424003000
B1218014710187N00902387EA0034300424001000
B1218054710187N00902387EA0034300424001000
B1218094710187N00902387EA0034300424000000
B1218134710187N00902387EA0034300424000000
B1218174710187N00902387EA0034300424003000
B1218214710187N00902387EA0034300424000000
B1218254710187N00902391EA0034300424001000
B1218294710183N00902395EA0034300424000004
B1218334710183N00902400EA0034300424000000
B1218374710179N00902404EA0034300424000008
B1218414710175N00902412EA0034300424000008
B1218454710175N00902416EA0034300424000012
B1218494710170N00902420EA0034300424000008
B1218534710170N00902425EA0034300424001008
B1218574710166N00902425EA0034300424000008
B1219014710166N00902425EA0034300416001012
B1219054710166N00902425EA0034300416000008
B1219094710166N00902425EA0034300416001004
B1219134710166N00902425EA0034300416000008
B1219174710166N00902425EA0034300416001000
B1219214710166N00902425EA0034300416000000
B1219254710166N00902425EA0034300416001000
B1219294710166N00902425EA0034300416000000
B1219334710166N00902425EA0034300416000000
B1219374710166N00902425EA0034300416003000
B1219414710166N00902425EA0034300416002000
B1219454710166N00902425EA0034300416000000
B1219494710166N00902425EA0034300416000000
B1219534710166N00902425EA0034300416000000
B1219574710166N00902425EA0034300416000000
B1220014710166N00902425EA0034300416000000
B1220054710166N00902425EA0034300416000000
B1220094710166N00902425EA0034300416000000
B1220134710166N00902425EA0034300416008020
B1220174710166N00902425EA0034300416006008
B1220214710166N00902425EA0034300416003000
B1220254710166N00902425EA0034300416000008
B1220294710166N00902425EA0034300416000012
B1220334710166N00902425EA0034300416000008
B1220374710166N00902425EA0034300416000004
B1220414710166N00902425EA0034300416000008
B1220454710166N00902425EA0034300416008000
B1220494710166N00902425EA0034300416014000
B1220534710166N00902425EA0034300416012020
B1220574710166N00902425EA0034300416000008
B1221014710166N00902425EA0034300416009000
B1221054710166N00902425EA0034300416000008
B1221094710166N00902425EA0034300416000000
B1221134710166N00902425EA0034300416000000
B1221174710166N00902425EA0034300416000000
B1221214710166N00902425EA0034300416000000
B1221254710166N00902425EA0034300416000000
B1221294710170N00902420EA0034300416007000
B1221334710179N00902416EA0034400416043000
B1221374710212N00902404EA0034400416101000
B1221414710262N00902379EA0034800416147092
B1221454710329N00902345EA0034800424175048
B1221494710408N00902308EA0035500432199052
B1221534710491N00902270EA0037100448209072
K122153000060
B1221574710575N00902237EA0039900464206060
B1222014710654N00902204EA0043400512202056
B1222054710737N00902175EA0045800528200040
B1222094710816N00902137EA0047800560202048
B1222134710883N00902066EA0050200584203040
K122213000071
B1222174710933N00901962EA0052500600203040
B1222214710958N00901841EA0055000624208032
B1222254710945N00901716EA0057700648201036
B1222294710908N00901604EA0060500680197032
B1222334710841N00901520EA0062900712200032
K122233000071
B1222374710754N00901491EA0065900744204016
B1222414710666N00901512EA0068900768204024
B1222454710591N00901579EA0071600792203028
B1222494710529N00901675EA0075100840201024
B1222534710479N00901783EA0078700872200028
K122253000071
B1222574710429N00901891EA0081600912202028
B1223014710370N00901987EA0084600936203024
B1223054710291N00902066EA0087700960204024
B1223094710204N00902120EA0089800984209024
B1223134710112N00902145EA0092301008212024
K122313000071
B1223174710016N00902129EA0095501048207020
B1223214709933N00902079EA0098601080203024
B1223254709858N00902000EA0102201120203028
B1223294709791N00901908EA0104901152204024
B1223334709745N00901791EA0107901176201020
K122333000071
B1223374709720N00901666EA0110401208202024
B1223414709712N00901541EA0113201232199020
B1223454709720N00901416EA0115801256198020
B1223494709741N00901300EA0119001288196020
B1223534709775N00901195EA0121401312197020
K122353000071
B1223574709816N00901095EA0124201352197016
B1224014709866N00901000EA0126301368199016
B1224054709920N00900908EA0129301400200020
B1224094709979N00900825EA0131501424202016
B1224134710045N00900754EA0133801448199020
K122413000083
B1224174710125N00900708EA0135901472199020
B1224214710208N00900691EA0138901496198024
B1224254710291N00900708EA0141201520198024
B1224294710375N00900750EA0143401544199024
B1224334710450N00900825EA0145601568200024
K122433000083
B1224374710516N00900925EA0147601592200024
B1224414710570N00901041EA0149901616202024
B1224454710600N00901179EA0152101632202024
B1224494710612N00901325EA0154301656203024
B1224534710595N00901470EA0157101688202024
K122453000083
B1224574710562N00901608EA0159701712201024
B1225014710508N00901729EA0163001744199028
B1225054710437N00901829EA0165401776197024
B1225094710354N00901908EA0168101808198024
B1225134710270N00901979EA0171401840197024
K122513000083
B1225174710179N00902029EA0174201864195024
B1225214710091N00902079EA0177201896193024
B1225254710000N00902120EA0179801920190020
B1225294709908N00902162EA0182601952191024
B1225334709816N00902204EA0185201976193020
K122533000058
B1225374709720N00902241EA0187402000193020
B1225414709625N00902279EA0189902032192020
B1225454709533N00902316EA0192702064193020
B1225494709441N00902362EA0195102088192020
B1225534709350N00902408EA0197702112195020
K122553000058
B1225574709262N00902462EA0200302144195020
B1226014709170N00902512EA0202902168194020
B1226054709083N00902562EA0205602192193020
B1226094708991N00902612EA0208102224192020
B1226134708904N00902666EA0210002240195020
K122613000061
B1226174708812N00902716EA0212902264195020
B1226214708725N00902766EA0215202296198020
B1226254708637N00902816EA0217902320197020
B1226294708550N00902866EA0220702352195024
B1226334708462N00902912EA0223002376192024
K122633000068
B1226374708379N00902958EA0225402400195020
B1226414708291N00903008EA0227702424197024
B1226454708204N00903070EA0230102448198024
B1226494708125N00903145EA0232902480195024
B1226534708050N00903233EA0235102496193020
K122653000068
B1226574707979N00903333EA0237602520193024
B1227014707912N00903441EA0240302544191024
B1227054707850N00903562EA0242602576192024
B1227094707791N00903683EA0244702600192020
B1227134707733N00903787EA0246602616165024
K122713000054
B1227174707670N00903866EA0247102632154004
B1227214707608N00903937EA0245902616169012
B1227254707533N00904016EA0244202592186012
B1227294707458N00904100EA0243702592188008
B1227334707383N00904183EA0244302600175004
K122733000056
B1227374707312N00904262EA0243802592179008
B1227414707237N00904337EA0243102584186008
B1227454707162N00904408EA0243102584186008
B1227494707087N00904475EA0243102584177012
B1227534707012N00904541EA0242802576174008
K122753000061
B1227574706941N00904600EA0242402576174008
B1228014706866N00904658EA0242302576169008
B1228054706795N00904712EA0242302576165008
B1228094706725N00904758EA0241902568160008
B1228134706654N00904808EA0240902560163012
K122813000058
B1228174706579N00904858EA0239502544176008
B1228214706504N00904904EA0239302544168020
B1228254706429N00904950EA0238202536173016
B1228294706354N00904995EA0237502528177016
B1228334706279N00905037EA0237602528169016
K122833000063
B1228374706204N00905083EA0236902520172000
B1228414706125N00905129EA0236502512175008
B1228454706050N00905170EA0236302512170012
B1228494705979N00905216EA0236102512168008
B1228534705908N00905258EA0236402512159012
K122853000063
B1228574705837N00905300EA0235802504164012
B1229014705770N00905337EA0235802504159008
B1229054705700N00905370EA0235502504158008
B1229094705633N00905400EA0235202504155008
B1229134705562N00905445EA0234702496157008
K122913000060
B1229174705495N00905495EA0234302488159008
B1229214705429N00905550EA0233802488158008
B1229254705362N00905604EA0233602488158008
B1229294705295N00905654EA0233302480155008
B1229334705229N00905700EA0232602472162012
K122933000058
B1229374705162N00905741EA0232302472154008
B1229414705091N00905779EA0232202472162008
B1229454705025N00905812EA0232102472148008
B1229494704958N00905845EA0231802472151008
B1229534704891N00905875EA0231402464154008
K122953000058
B1229574704825N00905908EA0230902456150012
B1230014704750N00905933EA0230102448162008
B1230054704679N00905954EA0230502456155008
B1230094704604N00905979EA0230502448157008
B1230134704537N00906000EA0230702456148008
K123013000057
B1230174704470N00906025EA0229502440156008
B1230214704400N00906066EA0228702440151012
B1230254704333N00906112EA0227902424161008
B1230294704262N00906162EA0227902424156012
B1230334704195N00906212EA0227902424158012
K123033000056
B1230374704133N00906258EA0228502432147012
B1230414704070N00906308EA0227502424155012
B1230454704004N00906354EA0227502424151008
B1230494703937N00906404EA0227702424146008
B1230534703870N00906454EA0227502424150012
K123053000050
B1230574703812N00906508EA0227502424144008
B1231014703758N00906579EA0226902416148012
B1231054703712N00906666EA0226302408151012
B1231094703666N00906754EA0226002400145008
B1231134703616N00906845EA0224002384162008
K123113000048
B1231174703566N00906937EA0224002384157012
B1231214703516N00907029EA0223902384159008
B1231254703470N00907116EA0224302392147012
B1231294703420N00907200EA0225102392145012
B1231334703375N00907275EA0225602400135012
K123133000044
B1231374703329N00907362EA0224902392145012
B1231414703291N00907458EA0224502392145012
B1231454703241N00907541EA0224302392150012
B1231494703175N00907579EA0223802384151008
B1231534703112N00907575EA0224102384143008
K123153000043
B1231574703045N00907570EA0224602392144008
B1232014702991N00907537EA0223802384151008
B1232054702937N00907483EA0224402384150028
B1232094702879N00907504EA0224802392130016
B1232134702820N00907550EA0224202384148000
K123213000043
B1232174702754N00907570EA0225002400144016
B1232214702695N00907587EA0224502392137012
B1232254702629N00907600EA0223302376145008
B1232294702562N00907612EA0222702376144012
B1232334702495N00907620EA0222802376143012
K123233000053
B1232374702425N00907645EA0222902376146012
B1232414702362N00907691EA0223202384143012
B1232454702291N00907729EA0223202384146008
B1232494702225N00907766EA0223802384143008
B1232534702154N00907795EA0223602384145008
K123253000047
B1232574702087N00907825EA0223802384139008
B1233014702020N00907858EA0223602384142008
B1233054701954N00907904EA0223402384149008
B1233094701895N00907958EA0224302392140008
B1233134701837N00908016EA0223802384137008
K123313000044
B1233174701770N00908075EA0222102368155012
B1233214701695N00908120EA0220802352164008
B1233254701620N00908158EA0220802352160008
B1233294701545N00908191EA0220302352159008
B1233334701466N00908225EA0219602344163012
K123333000048
B1233374701387N00908262EA0220202352160008
B1233414701312N00908304EA0219702344162012
B1233454701233N00908345EA0219502344164012
B1233494701154N00908383EA0219502344159012
B1233534701075N00908416EA0218102328163012
K123353000049
B1233574700991N00908433EA0217002320166012
B1234014700908N00908450EA0216502312169012
B1234054700820N00908462EA0216602312163008
B1234094700745N00908483EA0217202320162008
B1234134700670N00908525EA0217002320158012
K123413000049
B1234174700608N00908600EA0216502312162008
B1234214700579N00908708EA0216402304153012
B1234254700591N00908812EA0217702312149012
B1234294700637N00908887EA0218202320148028
B1234334700700N00908925EA0218102328148020
K123433000049
B1234374700770N00908950EA0218402328147004
B1234414700841N00908962EA0218702328155016
B1234454700883N00909033EA0219102328143028
B1234494700850N00909116EA0218302320145016
B1234534700775N00909104EA0217602312158016
K123453000049
B1234574700716N00909033EA0218602328150024
B1235014700670N00908958EA0218802336141000
B1235054700637N00908866EA0218802328145008
B1235094700612N00908762EA0218202320156012
B1235134700616N00908654EA0219402328160008
K123513000049
B1235174700600N00908566EA0219602336138028
B1235214700533N00908550EA0217902320151020
B1235254700491N00908633EA0218202320142000
B1235294700516N00908720EA0216702320139016
B1235334700562N00908804EA0215402288157028
K123533000049
B1235374700587N00908920EA0215802296167016
B1235414700575N00909029EA0218802320151016
B1235454700516N00909066EA0219102328143024
B1235494700458N00909016EA0219402336150024
B1235534700475N00908941EA0219602336145020
K123553000049
B1235574700541N00908966EA0220702352150016
B1236014700537N00909062EA0222302368137020
B1236054700475N00909066EA0222902376141000
B1236094700454N00908983EA0223602384140008
B1236134700508N00908941EA0224102384137012
K123613236005
B1236174700562N00909004EA0224902392148008
B1236214700533N00909091EA0225102400141012
B1236254700470N00909075EA0225902400152012
B1236294700470N00908983EA0227102416142012
B1236334700537N00908966EA0227602416150012
K123633264005
B1236374700583N00909041EA0228502424149012
B1236414700537N00909108EA0229502432145012
B1236454700491N00909045EA0229702448152028
B1236494700525N00908966EA0231302456152020
B1236534700587N00909000EA0232902472139000
K123653262005
B1236574700604N00909091EA0233902488132016
B1237014700562N00909150EA0234302496129012
B1237054700495N00909145EA0234202488143008
B1237094700470N00909066EA0235402496143004
B1237134700520N00909016EA0235902504138008
K123713238003
B1237174700570N00909075EA0237102512141008
B1237214700554N00909162EA0237602520134008
B1237254700491N00909175EA0237602520144012
B1237294700454N00909095EA0238102520154008
B1237334700475N00909008EA0239502536146008
K123733240007
B1237374700541N00909025EA0240702544142008
B1237414700545N00909120EA0241702560136012
B1237454700487N00909158EA0243102568135008
B1237494700429N00909116EA0243602584136008
B1237534700387N00909054EA0244302592126008
K123753310004
B1237574700391N00908966EA0243302576145008
B1238014700445N00908929EA0243802584132008
B1238054700500N00908962EA0244302584135008
B1238094700550N00909004EA0244502592131008
B1238134700612N00909025EA0244702592133012
K123813000049
B1238174700675N00909041EA0244802592137008
B1238214700741N00909050EA0245502608135008
B1238254700804N00909062EA0246902616129008
B1238294700862N00909095EA0247002616130008
B1238334700900N00909170EA0247102616129008
K123833000049
B1238374700895N00909266EA0247102624122008
B1238414700858N00909345EA0247302624129008
B1238454700804N00909408EA0247502632126008
B1238494700745N00909454EA0247202616131008
B1238534700679N00909495EA0247302624134008
K123853000049
B1238574700616N00909512EA0247402624128008
B1239014700545N00909533EA0246902616146008
B1239054700475N00909500EA0247102616142008
B1239094700470N00909412EA0247302616137012
B1239134700525N00909362EA0247002616140008
K123913000049
B1239174700587N00909375EA0247002616136012
B1239214700633N00909454EA0246402608151012
B1239254700662N00909550EA0247302624144012
B1239294700691N00909645EA0248002632140012
B1239334700704N00909745EA0247702624145012
K123933000049
B1239374700683N00909854EA0247902624147012
B1239414700633N00909941EA0247702624149008
B1239454700587N00910033EA0248102632143008
B1239494700545N00910120EA0248402640140008
B1239534700504N00910208EA0248402632145008
K123953000049
B1239574700454N00910291EA0249102640140008
B1240014700404N00910358EA0249102648135008
B1240054700354N00910429EA0248602640147008
B1240094700304N00910500EA0249302648136008
B1240134700254N00910566EA0249002640144008
K124013000047
B1240174700200N00910637EA0248802640140008
B1240214700150N00910700EA0248102640138008
B1240254700091N00910762EA0246902624142008
B1240294700045N00910845EA0246702616151008
B1240334700012N00910937EA0247002624136008
K124033000048
B1240374659983N00911033EA0245702608147004
B1240414659966N00911145EA0245002600148008
B1240454659954N00911245EA0245502608141012
B1240494659945N00911350EA0244902600147008
B1240534659937N00911462EA0245302608141008
K124053000044
B1240574659929N00911570EA0244302592152008
B1241014659920N00911691EA0244002592157008
B1241054659920N00911800EA0244902600145008
B1241094659916N00911912EA0244402592150008
B1241134659916N00912020EA0244402592140008
K124113000044
B1241174659912N00912129EA0243002576156008
B1241214659908N00912245EA0244502592140008
B1241254659908N00912345EA0246302608123008
B1241294659908N00912445EA0248002624127008
B1241334659879N00912525EA0248402632129008
K124133000037
B1241374659820N00912529EA0248502632125008
B1241414659787N00912454EA0248502632136008
B1241454659825N00912391EA0248602632134008
B1241494659883N00912425EA0249302640134012
B1241534659925N00912508EA0250002648134008
K124153000037
B1241574659958N00912587EA0251702664120008
B1242014659962N00912675EA0251502664123008
B1242054659925N00912745EA0251202664127008
B1242094659887N00912812EA0252402680111008
B1242134659870N00912895EA0252202672119008
K124213000037
B1242174659866N00912991EA0251702664142008
B1242214659820N00913050EA0251802664142004
B1242254659779N00912995EA0252102672130008
B1242294659795N00912904EA0251802664144008
B1242334659862N00912879EA0251202656148008
K124233000037
B1242374659929N00912920EA0250402656145028
B1242414659975N00913004EA0250002648146016
B1242454700004N00913108EA0249602648150000
B1242494700020N00913212EA0250102656140016
B1242534700025N00913316EA0250502656128012
K124253000037
B1242574700016N00913425EA0249102640149008
B1243014700000N00913541EA0249002640148012
B1243054659975N00913650EA0248902640152012
B1243094659954N00913762EA0248902640141012
B1243134659929N00913875EA0245702608155012
K124313000037
B1243174659900N00914004EA0244902592172028
B1243214659866N00914129EA0244802592166020
B1243254659829N00914241EA0245002592157016
B1243294659787N00914354EA0244302592161024
B1243334659745N00914462EA0244302592157016
K124333000041
B1243374659704N00914566EA0244902600157016
B1243414659670N00914662EA0246102608137000
B1243454659641N00914762EA0245302608143008
B1243494659629N00914875EA0245002592148012
B1243534659645N00914983EA0245002600139008
K124353000041
B1243574659662N00915091EA0245002600134008
B1244014659683N00915191EA0244702592130008
B1244054659708N00915291EA0245502600135008
B1244094659729N00915379EA0247602624124008
B1244134659716N00915462EA0247202616127012
K124413000037
B1244174659662N00915487EA0247002616123008
B1244214659612N00915429EA0247302616138012
B1244254659629N00915341EA0248002624137012
B1244294659691N00915341EA0248002624137012
B1244334659708N00915425EA0248602624140012
K124433012004
B1244374659650N00915462EA0248902632137012
B1244414659604N00915391EA0249102632149012
B1244454659620N00915300EA0249102632144012
B1244494659679N00915333EA0249302640142012
B1244534659679N00915429EA0249602648140012
K124453302003
B1244574659616N00915454EA0250802656138012
B1245014659587N00915375EA0251702664129012
B1245054659600N00915291EA0251102664137012
B1245094659629N00915216EA0251302664136012
B1245134659679N00915162EA0250002648142012
K124513338003
B1245174659704N00915079EA0249002640151012
B1245214659725N00914995EA0249102640136012
B1245254659745N00914920EA0249302648126012
B1245294659745N00914841EA0248802632130012
B1245334659700N00914787EA0247702624152012
K124533000037
B1245374659645N00914733EA0247502624139012
B1245414659579N00914716EA0247402624140012
B1245454659512N00914729EA0247502624136012
B1245494659445N00914741EA0247402624137012
B1245534659379N00914754EA0248402624145012
K124553000037
B1245574659320N00914758EA0249602648119008
B1246014659258N00914754EA0249802640143008
B1246054659204N00914795EA0250502656133012
B1246094659187N00914904EA0250202648139008
B1246134659150N00914995EA0251102656132012
K124613000037
B1246174659091N00915004EA0251102664138012
B1246214659079N00914929EA0251102664142012
B1246254659137N00914900EA0252102664142012
B1246294659183N00914983EA0253202680131008
B1246334659162N00915083EA0253902696122008
K124633262023
B1246374659104N00915120EA0254102696133012
B1246414659062N00915075EA0253902688133008
B1246454659079N00915000EA0253902688146008
B1246494659141N00915004EA0254802696133008
B1246534659170N00915104EA0256002704138028
K124653266024
B1246574659120N00915175EA0256402712140016
B1247014659066N00915133EA0256502712144000
B1247054659095N00915062EA0256502712147016
B1247094659158N00915108EA0258102728138028
B1247134659154N00915216EA0258902736136016
K124713276019
B1247174659087N00915254EA0258902744135020
B1247214659058N00915195EA0259302744136024
B1247254659087N00915125EA0260302752132000
B1247294659145N00915116EA0261402768127008
B1247334659191N00915187EA0261802768130012
K124733272023
B1247374659183N00915291EA0261802768127008
B1247414659129N00915358EA0261802768133008
B1247454659058N00915366EA0261102768135008
B1247494658987N00915350EA0259902752164008
B1247534658908N00915329EA0261402768159008
K124753272023
B1247574658845N00915304EA0263702792135012
B1248014658787N00915283EA0262702784143008
B1248054658720N00915254EA0261402776152012
B1248094658654N00915220EA0259902760162012
B1248134658583N00915187EA0259702752162004
K124813000037
B1248174658512N00915162EA0259602752157008
B1248214658441N00915141EA0259002752154008
B1248254658366N00915120EA0258202744162008
B1248294658295N00915091EA0258102744156008
B1248334658220N00915058EA0258302736154008
K124833000060
B1248374658158N00915025EA0260002760136012
B1248414658091N00914991EA0260502768140008
B1248454658025N00914954EA0260902768141008
B1248494657966N00914920EA0261002768138008
B1248534657904N00914879EA0260402760147008
K124853000053
B1248574657837N00914841EA0259902752151008
B1249014657770N00914812EA0259902760145012
B1249054657704N00914783EA0259902752140008
B1249094657637N00914754EA0258502744149008
B1249134657566N00914720EA0258102736159008
K124913000055
B1249174657495N00914695EA0258302744146000
B1249214657420N00914666EA0257602728159004
B1249254657345N00914633EA0257202728161008
B1249294657270N00914608EA0257802736141004
B1249334657195N00914591EA0255902720159012
K124933000052
B1249374657116N00914570EA0254702704168008
B1249414657033N00914558EA0255502712151028
B1249454656954N00914550EA0254502704157020
B1249494656875N00914550EA0253702696160004
B1249534656791N00914558EA0252202680166016
K124953000051
B1249574656704N00914570EA0251102672173008
B1250014656620N00914583EA0250702664171008
B1250054656537N00914591EA0250702664167028
B1250094656458N00914600EA0250802672163016
B1250134656379N00914608EA0251102664168016
K125013000058
B1250174656312N00914620EA0252702688140024
B1250214656237N00914629EA0251602680164016
B1250254656158N00914629EA0251202672160016
B1250294656075N00914616EA0250702664172016
B1250334655991N00914608EA0252102680165016
K125033000056
B1250374655916N00914595EA0253702696147016
B1250414655845N00914583EA0253802696148016
B1250454655770N00914554EA0252002680167000
B1250494655687N00914512EA0251602672169008
B1250534655608N00914475EA0250902664176008
K125053000055
B1250574655529N00914429EA0251302672162004
B1251014655462N00914383EA0251702680157012
B1251054655391N00914329EA0251202672168008
B1251094655325N00914275EA0251402680154012
B1251134655258N00914220EA0251402672156012
K125113000056
B1251174655195N00914162EA0251402672156012
B1251214655133N00914108EA0251202672146012
B1251254655070N00914037EA0249702656161012
B1251294655000N00913958EA0249602648170012
B1251334654933N00913883EA0251202664164028
K125133000052
B1251374654879N00913816EA0252502688139020
B1251414654825N00913750EA0252502680144000
B1251454654770N00913679EA0253302688140016
B1251494654720N00913616EA0254402704122008
B1251534654670N00913558EA0254102696128004
K125153000043
B1251574654620N00913491EA0254302696130008
B1252014654570N00913437EA0254302696125008
B1252054654520N00913366EA0253302688143008
B1252094654466N00913300EA0254502696133008
B1252134654416N00913250EA0255502712122008
K125213000041
B1252174654362N00913204EA0256102720121008
B1252214654304N00913162EA0256502720124008
B1252254654241N00913116EA0257202728127008
B1252294654183N00913083EA0257502728124008
B1252334654112N00913058EA0256102720137008
K125233000038
B1252374654058N00913004EA0256202720130008
B1252414654050N00912916EA0254802704140008
B1252454654108N00912870EA0254302688153024
B1252494654170N00912908EA0252902688155016
B1252534654237N00912950EA0252802688156016
K125253000038
B1252574654304N00912983EA0253002688157020
B1253014654370N00913004EA0254402696148000
B1253054654433N00913020EA0254302704144008
B1253094654500N00913033EA0253102688154012
B1253134654570N00913045EA0253702696153008
K125313000061
B1253174654637N00913058EA0254302704146008
B1253214654704N00913070EA0254302696149008
B1253254654775N00913083EA0253602688157028
B1253294654845N00913095EA0253602688158016
B1253334654920N00913108EA0251802672168000
K125333000064
B1253374655000N00913129EA0251202664178016
B1253414655083N00913150EA0251202664177008
B1253454655162N00913166EA0251302672165004
B1253494655233N00913175EA0251802680114012
B1253534655304N00913179EA0251202664111008
K125353000038
B1253574655383N00913179EA0249902648117012
B1254014655458N00913175EA0249602648121012
B1254054655533N00913179EA0249002648116028
B1254094655608N00913208EA0245902616125020
B1254134655695N00913254EA0243102584145016
K125413000017
B1254174655783N00913320EA0241702568152024
B1254214655875N00913391EA0241102560153036
B1254254655962N00913466EA0241302560156024
B1254294656045N00913545EA0243102576150036
B1254334656112N00913616EA0245502608119036
K125433000006
B1254374656179N00913687EA0245802616120016
B1254414656245N00913766EA0246302616118024
B1254454656304N00913858EA0246202616114008
B1254494656350N00913966EA0245702608117012
B1254534656395N00914083EA0245302608118012
K125453180000
B1254574656437N00914200EA0245202600113008
B1255014656475N00914320EA0244702600119012
B1255054656512N00914441EA0244802600119012
B1255094656545N00914562EA0245302608116012
B1255134656575N00914675EA0245302600113012
K125513180011
B1255174656604N00914795EA0244202592121012
B1255214656637N00914916EA0243502584120012
B1255254656666N00915033EA0243102584115012
B1255294656695N00915154EA0242802576113012
B1255334656720N00915275EA0242102568114012
K125533180012
B1255374656745N00915391EA0241402568115012
B1255414656770N00915508EA0240902560116012
B1255454656795N00915625EA0240402552110012
B1255494656820N00915745EA0239102544111012
B1255534656845N00915862EA0238002528114012
K125553180011
B1255574656870N00915983EA0237302520115012
B1256014656887N00916095EA0238502536101012
B1256054656908N00916200EA0240002544096012
B1256094656920N00916300EA0239802552091012
B1256134656933N00916408EA0238502536101012
K125613180010
B1256174656950N00916520EA0238502536100012
B1256214656962N00916625EA0239402544094008
B1256254656979N00916733EA0239302544099008
B1256294657004N00916837EA0239402544104008
B1256334657033N00916937EA0240302552098008
K125633180011
B1256374657050N00917037EA0240602552096004
B1256414657041N00917145EA0240602552102008
B1256454657020N00917258EA0240802552100004
B1256494657004N00917362EA0242602568090004
B1256534657012N00917462EA0243102576091000
K125653180011
B1256574657070N00917500EA0243002576093000
B1257014657108N00917445EA0243002568095008
B1257054657079N00917375EA0243102576097004
B1257094657012N00917354EA0243402584096008
B1257134656958N00917408EA0245302600095008
K125713180011
B1257174656962N00917504EA0245702608095008
B1257214657025N00917525EA0244302592109008
B1257254657041N00917441EA0245002600107012
B1257294656987N00917400EA0246502616094008
B1257334656941N00917462EA0247902632091012
K125733298009
B1257374656958N00917550EA0248002624097012
B1257414657020N00917533EA0246902616113008
B1257454657004N00917454EA0247702624101008
B1257494656937N00917429EA0248202632101012
B1257534656879N00917470EA0249302648086008
K125753304010
B1257574656854N00917566EA0248102632097012
B1258014656854N00917670EA0248502640090012
B1258054656858N00917779EA0247202624097008
B1258094656891N00917887EA0246702616108008
B1258134656941N00917975EA0247002624101024
K125813180011
B1258174656991N00918050EA0246702624097016
B1258214657045N00918125EA0245302600108000
B1258254657104N00918204EA0244202592112012
B1258294657158N00918300EA0243202584117008
B1258334657212N00918408EA0242402576119004
K125833180011
B1258374657266N00918512EA0242202576113012
B1258414657320N00918620EA0241902568113008
B1258454657375N00918720EA0241202560119012
B1258494657429N00918820EA0240902560115012
B1258534657483N00918920EA0240102552118012
K125853180012
B1258574657537N00919016EA0240702560113012
B1259014657595N00919104EA0241202560107012
B1259054657650N00919195EA0241202568107012
B1259094657704N00919287EA0241002560112012
B1259134657766N00919370EA0241002560109012
K125913180014
B1259174657829N00919454EA0241102568108012
B1259214657895N00919533EA0241302568108012
B1259254657962N00919608EA0241502568107012
B1259294658037N00919670EA0241602568112012
B1259334658120N00919712EA0241502560118028
K125933180014
B1259374658195N00919766EA0242602576106020
B1259414658258N00919845EA0243102584097000
B1259454658308N00919937EA0242702576111016
B1259494658358N00920041EA0243302584105028
B1259534658395N00920145EA0242802576111016
K125953180015
B1259574658425N00920262EA0241902568113016
B1300014658462N00920379EA0240902560117024
B1300054658504N00920495EA0240702552125016
B1300094658541N00920600EA0241702576111016
B1300134658570N00920695EA0241702576106000
K130013180006
B1300174658604N00920800EA0241702568106008
B1300214658633N00920904EA0241502568109012
B1300254658654N00921020EA0240402560111008
B1300294658679N00921137EA0239802544118028
B1300334658716N00921254EA0239002544118020
K130033180005
B1300374658758N00921370EA0236002512134016
B1300414658812N00921495EA0234302488141024
B1300454658870N00921612EA0234202488142016
B1300494658925N00921725EA0234202488137016
B1300534658983N00921837EA0234102488133020
K130053180004
B1300574659033N00921950EA0233302480139016
B1301014659087N00922070EA0233302480137016
B1301054659133N00922183EA0233902488130016
B1301094659170N00922291EA0234202496121000
B1301134659204N00922404EA0234202488119008
K130113180002
B1301174659237N00922516EA0234202488118012
B1301214659266N00922625EA0234202496117008
B1301254659291N00922733EA0234202496116012
B1301294659316N00922841EA0234102488118012
B1301334659337N00922954EA0233602488115012
K130133000001
B1301374659358N00923070EA0232202472122012
B1301414659379N00923191EA0232102472123028
B1301454659404N00923308EA0232402472117020
B1301494659420N00923420EA0233402480111000
B1301534659437N00923529EA0234202488106016
K130153180002
B1301574659450N00923641EA0234302488111012
B1302014659458N00923750EA0234202488109008
B1302054659466N00923862EA0233302480117012
B1302094659466N00923979EA0233102480115012
B1302134659454N00924095EA0232702472118028
K130213180000
B1302174659433N00924220EA0232102464116020
B1302214659400N00924337EA0232102464112016
B1302254659358N00924445EA0231602464111024
B1302294659316N00924558EA0230902456112000
B1302334659275N00924675EA0230202448116008
K130233180014
B1302374659237N00924791EA0229902448116012
B1302414659204N00924912EA0228502432122008
B1302454659170N00925033EA0227902424123028
B1302494659133N00925154EA0227802424117020
B1302534659091N00925270EA0227902424111016
K130253180014
B1302574659045N00925379EA0226902416113024
B1303014658995N00925495EA0225702400121000
B1303054658941N00925616EA0225302400123008
B1303094658895N00925737EA0225802400119028
B1303134658858N00925854EA0226502408112016
K130313180020
B1303174658825N00925975EA0226502408109000
B1303214658787N00926087EA0226002408109016
B1303254658745N00926208EA0224302384116012
B1303294658708N00926337EA0222902376125008
B1303334658687N00926470EA0222302368122028
K130333180020
B1303374658675N00926608EA0219802344128020
B1303414658670N00926745EA0219202336125016
B1303454658670N00926879EA0218802336119024
B1303494658675N00927008EA0216402312126000
B1303534658695N00927150EA0213402272142008
K130353180010
B1303574658720N00927295EA0212002256144028
B1304014658745N00927441EA0211302248140016
B1304054658762N00927579EA0211102248129020
B1304094658783N00927720EA0208902224137024
B1304134658808N00927862EA0206802208142024
K130413180011
B1304174658837N00928004EA0206102200136024
B1304214658862N00928137EA0205502192130028
B1304254658891N00928266EA0203902184127024
B1304294658929N00928395EA0200902144142024
B1304334658970N00928533EA0199502128143024
K130433180009
B1304374659008N00928670EA0199502128135020
B1304414659037N00928791EA0199202128125024
B1304454659070N00928920EA0197102112137024
B1304494659108N00929054EA0196102096138024
B1304534659141N00929183EA0196002096131020
K130453180008
B1304574659170N00929304EA0196002096126024
B1305014659200N00929425EA0196002096120024
B1305054659225N00929545EA0195802096119024
B1305094659250N00929666EA0194702088123000
B1305134659275N00929795EA0194202080125012
K130513180008
B1305174659300N00929920EA0193802072127012
B1305214659320N00930045EA0194902088117008
B1305254659341N00930154EA0195802096105012
B1305294659362N00930262EA0195702096108012
B1305334659383N00930370EA0195602096108012
K130533180009
B1305374659404N00930483EA0195702096110012
B1305414659425N00930595EA0195702096109012
B1305454659441N00930704EA0196402104106012
B1305494659458N00930804EA0197202112095012
B1305534659470N00930904EA0197102104099012
K130553180008
B1305574659487N00931008EA0196302104105008
B1306014659504N00931116EA0195602096108008
B1306054659516N00931225EA0194702088110024
B1306094659525N00931341EA0193702072114016
B1306134659533N00931466EA0193102072116000
K130613180006
B1306174659537N00931583EA0193002064115012
B1306214659545N00931704EA0192602064112012
B1306254659554N00931820EA0192602056108008
B1306294659566N00931937EA0192102056112012
B1306334659575N00932054EA0192002056106012
K130633180011
B1306374659587N00932158EA0191502048102012
B1306414659604N00932270EA0190602040109012
B1306454659620N00932379EA0190002032112008
B1306494659633N00932491EA0190002032109008
B1306534659645N00932600EA0190002032109012
K130653180006
B1306574659662N00932708EA0190002032110008
B1307014659675N00932812EA0190002032105012
B1307054659687N00932912EA0190202040103012
B1307094659700N00933012EA0190002032103012
B1307134659712N00933112EA0189602024102012
K130713180000
B1307174659716N00933216EA0188702024104012
B1307214659720N00933320EA0187602008107012
B1307254659725N00933433EA0186302000110008
B1307294659729N00933550EA0185101984117008
B1307334659733N00933675EA0184101968120008
K130733180004
B1307374659737N00933795EA0183601968119008
B1307414659741N00933916EA0183101960119028
B1307454659745N00934037EA0182201952114016
B1307494659754N00934154EA0181201936118000
B1307534659762N00934275EA0180601928118016
K130753180006
B1307574659775N00934395EA0180401928114012
B1308014659783N00934508EA0180201928110008
B1308054659795N00934620EA0179801928110012
B1308094659808N00934733EA0179301920109012
B1308134659816N00934845EA0178801912109012
K130813180006
B1308174659825N00934958EA0178201904110012
B1308214659833N00935070EA0177801904108012
B1308254659845N00935179EA0177701904106012
B1308294659854N00935283EA0177801904105012
B1308334659866N00935387EA0177901904101012
K130833180005
B1308374659870N00935491EA0177701904104012
B1308414659875N00935595EA0177701904103012
B1308454659883N00935700EA0177701904096012
B1308494659891N00935800EA0177701904097012
B1308534659895N00935908EA0176901896099008
K130853180009
B1308574659908N00936020EA0176801888101008
B1309014659920N00936129EA0176701888111024
B1309054659941N00936237EA0176801888107016
B1309094659966N00936337EA0176301888106024
B1309134659979N00936437EA0176301888101024
K130913180009
B1309174659995N00936529EA0176101888096008
B1309214700004N00936625EA0174401872104016
B1309254700012N00936733EA0173701856108012
B1309294700025N00936841EA0174201864105008
B1309334700045N00936933EA0175701880097028
K130933180004
B1309374700083N00937012EA0177301896094020
B1309414700129N00937070EA0177501896093004
B1309454700179N00937125EA0176901888095016
B1309494700229N00937191EA0175901880100012
B1309534700275N00937258EA0176201880100008
K130953000001
B1309574700320N00937316EA0177001896091008
B1310014700366N00937370EA0177301896089008
B1310054700412N00937425EA0177201896091004
B1310094700458N00937479EA0177201896091008
B1310134700500N00937537EA0176401888095000
K131013000004
B1310174700550N00937595EA0176201880099000
B1310214700608N00937645EA0176701888099004
B1310254700670N00937670EA0176801888099000
B1310294700733N00937695EA0177701904091008
B1310334700791N00937716EA0178201904088008
K131033000004
B1310374700845N00937737EA0177701904091008
B1310414700904N00937766EA0177201896092008
B1310454700966N00937795EA0176201888095004
B1310494701029N00937833EA0175301880103008
B1310534701091N00937866EA0175701880098008
K131053180000
B1310574701150N00937900EA0176301888093008
B1311014701212N00937933EA0176801896093008
B1311054701275N00937937EA0176801896096008
B1311094701337N00937920EA0176601888101008
B1311134701395N00937895EA0177701896095008
K131113180001
B1311174701450N00937904EA0178401904098016
B1311214701462N00937991EA0179201912098012
B1311254701408N00938045EA0178501912102016
B1311294701333N00938029EA0179601920106016
B1311334701291N00938087EA0180201928095016
K131133180001
B1311374701325N00938154EA0180701928108016
B1311414701362N00938100EA0182101944095000
B1311454701320N00938033EA0181201936101008
B1311494701254N00938037EA0181101936102012
B1311534701216N00938125EA0180701928110008
K131153018004
B1311574701233N00938204EA0181401944096028
B1312014701283N00938212EA0182401952095020
B1312054701329N00938166EA0183101960093000
B1312094701362N00938095EA0183201960095016
B1312134701404N00938025EA0182601952104008
K131213180001
B1312174701470N00937983EA0183701952113004
B1312214701508N00938050EA0185201976097024
B1312254701466N00938116EA0185101976098016
B1312294701391N00938091EA0184701968101000
B1312334701383N00938000EA0184801968099012
K131233180001
B1312374701441N00937962EA0185201976102012
B1312414701483N00938029EA0186201984099008
B1312454701441N00938104EA0186901992097028
B1312494701379N00938070EA0187301992097020
B1312534701391N00937979EA0187201992096000
K131253336007
B1312574701445N00937945EA0187702000097016
B1313014701495N00938000EA0188302008102012
B1313054701470N00938095EA0189302016099008
B1313094701408N00938095EA0189402024097012
B1313134701383N00938008EA0189402016105012
K131313322011
B1313174701420N00937945EA0190202024095012
B1313214701475N00937987EA0191202032098012
B1313254701475N00938087EA0192702048089012
B1313294701420N00938145EA0193302056092012
B1313334701358N00938125EA0193402064091008
K131333308012
B1313374701341N00938025EA0193702064095008
B1313414701366N00937958EA0194402072097008
B1313454701420N00937983EA0195102080090008
B1313494701437N00938075EA0195702088090008
B1313534701395N00938154EA0196702088093008
K131353326012
B1313574701329N00938154EA0197202104088008
B1314014701304N00938079EA0197202104093008
B1314054701341N00938016EA0197802112092008
B1314094701400N00938037EA0199302128095008
B1314134701420N00938116EA0200302136087008
K131413318012
B1314174701379N00938191EA0200302136093008
B1314214701308N00938183EA0200302144096008
B1314254701308N00938100EA0200702144099008
B1314294701366N00938062EA0201302144103008
B1314334701400N00938133EA0202502160096008
K131433306012
B1314374701362N00938216EA0203402168094004
B1314414701295N00938216EA0204202176089008
B1314454701262N00938145EA0204302184089012
B1314494701316N00938050EA0204702184096008
B1314534701362N00937987EA0204302184108008
K131453316012
B1314574701412N00937916EA0205102184107008
B1315014701470N00937950EA0206902208096012
B1315054701466N00938045EA0208102216091008
B1315094701404N00938070EA0208502224091012
B1315134701358N00938008EA0209902216094012
K131513180001
B1315174701391N00937945EA0211002240086012
B1315214701445N00937970EA0211202240089012
B1315254701462N00938062EA0212502256093012
B1315294701412N00938112EA0213102264087012
B1315334701345N00938079EA0212902256095008
K131533322007
B1315374701341N00937991EA0214502264098008
B1315414701400N00937908EA0215202280091008
B1315454701458N00937950EA0215202280097008
B1315494701454N00938050EA0216702288092008
B1315534701395N00938070EA0217202304091008
K131553300010
B1315574701362N00937995EA0218102312095012
B1316014701408N00937937EA0219102320093008
B1316054701470N00937975EA0219002320099008
B1316094701483N00938083EA0219102328099008
B1316134701429N00938150EA0220402344098008
K131613280011
B1316174701383N00938108EA0222002360084008
B1316214701395N00938029EA0222202360093012
B1316254701454N00938016EA0222402368091008
B1316294701495N00938095EA0222702368092008
B1316334701466N00938200EA0222602368103008
K131633274012
B1316374701400N00938237EA0224302376096008
B1316414701370N00938170EA0224802392093008
B1316454701408N00938112EA0225802400094008
B1316494701454N00938170EA0225802408091008
B1316534701429N00938270EA0225802400099008
K131653286013
B1316574701362N00938291EA0226102408091008
B1317014701325N00938216EA0227002416099004
B1317054701370N00938166EA0227402416099008
B1317094701420N00938220EA0228302424093008
B1317134701404N00938316EA0229002432088008
K131713296013
B1317174701345N00938345EA0229602440086012
B1317214701295N00938295EA0229702440093008
B1317254701295N00938216EA0230302448092004
B1317294701354N00938212EA0230702448096008
B1317334701379N00938304EA0230802448102004
K131733308013
B1317374701325N00938362EA0231602456094004
B1317414701270N00938304EA0231602456099008
B1317454701295N00938229EA0232702464095008
B1317494701350N00938250EA0233402472093012
B1317534701358N00938350EA0233402472098008
K131753304010
B1317574701295N00938387EA0233402480093008
B1318014701258N00938325EA0233902480097008
B1318054701270N00938241EA0234902496093008
B1318094701320N00938216EA0236102504084008
B1318134701362N00938283EA0235302496089012
K131813278009
B1318174701345N00938383EA0235702496091008
B1318214701291N00938404EA0236402504083008
B1318254701241N00938354EA0236102504091008
B1318294701245N00938279EA0236802512084008
B1318334701287N00938237EA0237402520084008
K131833282009
B1318374701345N00938262EA0237202512087008
B1318414701370N00938354EA0237602520083008
B1318454701362N00938458EA0236002512087004
B1318494701345N00938575EA0234602488114008
B1318534701320N00938700EA0234202488118008
K131853278012
B1318574701295N00938820EA0234202488115008
B1319014701270N00938945EA0233602480122012
B1319054701250N00939070EA0233702480117008
B1319094701229N00939183EA0234302488108012
B1319134701212N00939295EA0233802488106012
K131913180008
B1319174701191N00939404EA0233102480105012
B1319214701170N00939520EA0232502472105012
B1319254701141N00939633EA0232502472106012
B1319294701116N00939745EA0232502472105012
B1319334701091N00939858EA0232102464105012
K131933180013
B1319374701062N00939970EA0231702464110012
B1319414701033N00940083EA0231602464109012
B1319454701000N00940195EA0231102456109012
B1319494700966N00940312EA0230002448115012
B1319534700933N00940429EA0230002448109012
K131953180014
B1319574700904N00940533EA0230502456103012
B1320014700870N00940641EA0228502432120012
B1320054700837N00940766EA0226802416130012
B1320094700808N00940895EA0226502408126012
B1320134700783N00941025EA0226402408121028
K132013180010
B1320174700762N00941150EA0226502408120020
B1320214700737N00941275EA0226302408122016
B1320254700716N00941395EA0226502408120024
B1320294700691N00941512EA0225802400117016
B1320334700670N00941637EA0224902392119016
K132033180008
B1320374700662N00941762EA0224902392114000
B1320414700675N00941879EA0226502400116008
B1320454700691N00941979EA0228302424099028
B1320494700687N00942083EA0228302424096016
B1320534700716N00942170EA0227802424101000
K132053180007
B1320574700766N00942245EA0227102416106016
B1321014700808N00942320EA0227702424101008
B1321054700854N00942404EA0226502416106004
B1321094700883N00942512EA0225302392116012
B1321134700891N00942641EA0225002392127008
K132113180007
B1321174700879N00942762EA0226102408113028
B1321214700854N00942879EA0225302392120020
B1321254700816N00942995EA0223802384133020
B1321294700766N00943104EA0224102384128024
B1321334700716N00943204EA0224602392120020
K132133180007
B1321374700662N00943300EA0224502384118020
B1321414700612N00943395EA0223802384121000
B1321454700558N00943495EA0224302392118008
B1321494700508N00943591EA0224602392110028
B1321534700454N00943683EA0223802384114016
K132153180006
B1321574700395N00943779EA0222302368120000
B1322014700325N00943879EA0220202344131016
B1322054700250N00943975EA0220202344131028
B1322094700183N00944062EA0221802360120016
B1322134700120N00944141EA0222302368110016
K132213180011
B1322174700058N00944220EA0220802352115024
B1322214659987N00944295EA0218802336127000
B1322254659908N00944383EA0218102320138008
B1322294659825N00944462EA0218102320135028
B1322334659745N00944537EA0218102320132016
K132233180007
B1322374659670N00944608EA0217702320126016
B1322414659591N00944683EA0216602304130024
B1322454659512N00944758EA0216602304130016
B1322494659433N00944833EA0216402296129016
B1322534659354N00944908EA0216002296128016
K132253180009
B1322574659275N00944979EA0215502288129016
B1323014659195N00945050EA0215502288126016
B1323054659120N00945120EA0215402288125016
B1323094659045N00945191EA0215402288127016
B1323134658970N00945258EA0215402288120016
K132313180009
B1323174658895N00945325EA0214302280119000
B1323214658816N00945391EA0212902264129008
B1323254658733N00945454EA0212402256128012
B1323294658650N00945516EA0212402256130008
B1323334658570N00945575EA0212502256123028
K132333180008
B1323374658495N00945629EA0213002264112020
B1323414658420N00945679EA0212502256117000
B1323454658337N00945733EA0211302248124016
B1323494658258N00945779EA0210802240127012
B1323534658175N00945825EA0211002248121008
K132353180007
B1323574658095N00945866EA0212002256115012
B1324014658025N00945904EA0213002264104012
B1324054657954N00945937EA0212602264108012
B1324094657875N00945966EA0212402256109012
B1324134657800N00946004EA0211802256111012
K132413180006
B1324174657729N00946054EA0211802248112012
B1324214657662N00946116EA0211502248111012
B1324254657595N00946175EA0211402248109012
B1324294657525N00946233EA0210602240110012
B1324334657454N00946287EA0210302240111012
K132433180008
B1324374657383N00946345EA0210402240109012
B1324414657316N00946400EA0210402240109012
B1324454657254N00946466EA0211002248104012
B1324494657204N00946537EA0212602264097012
B1324534657195N00946625EA0213102264093012
K132453180007
B1324574657229N00946704EA0212902264096012
B1325014657270N00946770EA0213202272092012
B1325054657304N00946845EA0214202280088012
B1325094657337N00946916EA0214202280091008
B1325134657354N00947004EA0213902272090008
K132513180007
B1325174657370N00947095EA0213502272089008
B1325214657354N00947187EA0212502264097008
B1325254657325N00947287EA0212102256099008
B1325294657291N00947379EA0211102248099008
B1325334657254N00947479EA0209702232105008
K132533180007
B1325374657216N00947583EA0208502224112008
B1325414657170N00947695EA0208302216112012
B1325454657129N00947800EA0208302224110008
B1325494657091N00947904EA0208502224108012
B1325534657054N00948004EA0208602224104012
K132553180011
B1325574657016N00948095EA0209302232098012
B1326014656979N00948187EA0209302232097012
B1326054656945N00948279EA0208702224100008
B1326094656912N00948375EA0208202224103008
B1326134656879N00948470EA0207602216102008
K132613180008
B1326174656841N00948562EA0207002208101008
B1326214656800N00948654EA0206802200101008
B1326254656745N00948737EA0205302192109008
B1326294656675N00948795EA0205102184111008
B1326334656600N00948833EA0204802184109008
K132633180008
B1326374656520N00948854EA0204602184110012
B1326414656441N00948870EA0205702200109008
B1326454656370N00948879EA0207202208093012
B1326494656304N00948862EA0206602200097012
B1326534656233N00948870EA0205802192098012
K132653180009
B1326574656162N00948904EA0205102184097012
B1327014656091N00948925EA0205102184099012
B1327054656016N00948958EA0205702192098012
B1327094655954N00949016EA0205702192098008
B1327134655920N00949112EA0205102184098008
K132713180012
B1327174655891N00949216EA0203702176100012
B1327214655850N00949316EA0202802160108008
B1327254655812N00949408EA0202902168096028
B1327294655770N00949491EA0202902168097020
B1327334655725N00949570EA0202902168094020
K132733180011
B1327374655679N00949654EA0202202160100024
B1327414655629N00949741EA0201802152101000
B1327454655587N00949829EA0202002160097008
B1327494655550N00949920EA0203302168093012
B1327534655516N00950000EA0204902184084008
K132753180013
B1327574655479N00950070EA0204802184086012
B1328014655416N00950100EA0203902176099012
B1328054655366N00950045EA0204202176094000
B1328094655391N00949970EA0204102176098008
B1328134655458N00949983EA0203802176096004
K132813180013
B1328174655483N00950070EA0204902184089000
B1328214655470N00950166EA0204902184095012
B1328254655445N00950262EA0204702184098008
B1328294655420N00950354EA0204902184090008
B1328334655387N00950441EA0204802184095008
K132833270009
B1328374655341N00950525EA0204102176104004
B1328414655291N00950595EA0204902184099008
B1328454655237N00950658EA0205102184096000
B1328494655175N00950700EA0204202176101000
B1328534655104N00950725EA0203902176108000
K132853180013
B1328574655033N00950745EA0204902184098000
B1329014654970N00950770EA0205202192094008
B1329054654904N00950795EA0205302192099004
B1329094654837N00950845EA0205702192099004
B1329134654791N00950929EA0206802200096008
K132913180004
B1329174654745N00951016EA0207402208098000
B1329214654683N00951012EA0207402200098000
B1329254654662N00950941EA0207002200100008
B1329294654712N00950904EA0206802200098004
B1329334654762N00950966EA0207202208091012
K132933180004
B1329374654775N00951066EA0207202208092008
B1329414654741N00951158EA0207002200099012
B1329454654679N00951175EA0206802200096012
B1329494654645N00951116EA0205802192097008
B1329534654662N00951033EA0204502184108008
K132953270017
B1329574654704N00950962EA0204902184103012
B1330014654750N00950904EA0205702192094008
B1330054654800N00950866EA0206102192095012
B1330094654858N00950837EA0205802192102012
B1330134654920N00950820EA0206602208096004
K133013272017
B1330174654983N00950820EA0207502216093008
B1330214655045N00950829EA0208302216091000
B1330254655100N00950795EA0208002216099000
B1330294655100N00950708EA0208002216106008
B1330334655033N00950687EA0208502224102004
K133033180004
B1330374654970N00950750EA0208502224104008
B1330414654908N00950804EA0209402232101008
B1330454654841N00950791EA0208702224107012
B1330494654829N00950708EA0208402216112008
B1330534654891N00950687EA0208002216110028
K133053180004
B1330574654950N00950754EA0207902216109020
B1331014655012N00950816EA0208102216102000
B1331054655075N00950858EA0208402224103016
B1331094655145N00950850EA0207902216108012
B1331134655204N00950800EA0208302224105008
K133113180004
B1331174655254N00950741EA0208402224100004
B1331214655304N00950687EA0208502224100008
B1331254655354N00950625EA0207902216102004
B1331294655395N00950550EA0207902208099004
B1331334655433N00950470EA0208402216097008
K133133000006
B1331374655466N00950404EA0208602224092008
B1331414655504N00950337EA0208602224093008
B1331454655537N00950266EA0208602224094008
B1331494655566N00950195EA0208602216097000
B1331534655600N00950125EA0208602216097004
K133153000013
B1331574655629N00950054EA0208002216096000
B1332014655641N00949966EA0206302184104000
B1332054655650N00949866EA0204902176107004
B1332094655654N00949766EA0205102176102000
B1332134655650N00949666EA0205902192101028
K133213000006
B1332174655641N00949575EA0206802200088016
B1332214655629N00949483EA0205602192094000
B1332254655625N00949391EA0204702176099016
B1332294655629N00949295EA0205202184101008
B1332334655633N00949208EA0205702192085004
K133233000004
B1332374655641N00949129EA0205302184092012
B1332414655654N00949041EA0205102184094008
B1332454655658N00948958EA0205702192091012
B1332494655650N00948887EA0206902200082012
B1332534655620N00948825EA0207302200084008
K133253000007
B1332574655604N00948750EA0206802200085008
B1333014655637N00948691EA0206802200088008
B1333054655695N00948695EA0207202208091008
B1333094655720N00948770EA0207602216085008
B1333134655687N00948854EA0207602208090008
K133313000007
B1333174655620N00948870EA0207602208093004
B1333214655591N00948808EA0208102216085008
B1333254655612N00948741EA0207902216088004
B1333294655670N00948741EA0208402216091004
B1333334655695N00948812EA0209102232079008
K133333306010
B1333374655670N00948895EA0208902224086008
B1333414655612N00948937EA0208802224086008
B1333454655566N00948900EA0209002232081008
B1333494655558N00948825EA0208902224083008
B1333534655587N00948762EA0209402232092008
K133353302011
B1333574655633N00948725EA0209902240087004
B1334014655687N00948750EA0210302240090008
B1334054655704N00948829EA0210502240085008
B1334094655662N00948900EA0210902248089008
B1334134655604N00948887EA0211102248089004
K133413312011
B1334174655587N00948816EA0211502256085008
B1334214655625N00948762EA0211502256088004
B1334254655675N00948787EA0211802256092004
B1334294655695N00948875EA0212102256095004
B1334334655658N00948962EA0212502256096004
K133433322011
B1334374655591N00948958EA0212702264096008
B1334414655570N00948879EA0213702272089008
B1334454655600N00948816EA0214002280089012
B1334494655650N00948820EA0214502280089008
B1334534655683N00948891EA0215202288086004
K133453318009
B1334574655666N00948987EA0216002296093008
B1335014655608N00949020EA0216202296092004
B1335054655562N00948966EA0217002304090004
B1335094655579N00948887EA0217502312095008
B1335134655629N00948883EA0218702320089008
K133513310012
B1335174655658N00948954EA0219202328090008
B1335214655629N00949037EA0219902336091008
B1335254655566N00949041EA0220702344092008
B1335294655541N00948966EA0221202352091008
B1335334655570N00948908EA0221702360088008
K133533320011
B1335374655620N00948937EA0222402368090008
B1335414655633N00949025EA0222902376091008
B1335454655583N00949091EA0223902384088008
B1335494655525N00949075EA0224302392088004
B1335534655508N00949000EA0225302392088008
K133553322012
B1335574655545N00948954EA0226102400087008
B1336014655587N00949000EA0226902408085008
B1336054655575N00949083EA0227402416085008
B1336094655516N00949125EA0227502416089008
B1336134655462N00949075EA0228002424092008
K133613326012
B1336174655466N00949000EA0229202440082008
B1336214655508N00948979EA0229502440088008
B1336254655550N00949025EA0229702440085008
B1336294655550N00949112EA0229802448088004
B1336334655500N00949183EA0229802440093008
K133633336013
B1336374655429N00949183EA0231202456094000
B1336414655395N00949120EA0232702472078000
B1336454655408N00949054EA0232902472084000
B1336494655454N00949025EA0233202480087000
B1336534655495N00949058EA0233802488080004
K133653332015
B1336574655512N00949141EA0233802480088000
B1337014655487N00949225EA0234502488087004
B1337054655429N00949266EA0234702496083004
B1337094655366N00949237EA0235102496089004
B1337134655345N00949166EA0235902504084004
K133713328015
B1337174655375N00949108EA0235902504090008
B1337214655425N00949116EA0236102512085008
B1337254655450N00949187EA0236302512088000
B1337294655462N00949275EA0236302512088004
B1337334655437N00949362EA0237102520083004
K133733326016
B1337374655404N00949458EA0235902504097000
B1337414655412N00949566EA0235602504102008
B1337454655437N00949666EA0238002520100008
B1337494655475N00949733EA0238902536090012
B1337534655525N00949700EA0238702528100008
K133753000007
B1337574655516N00949616EA0239602544093012
B1338014655450N00949612EA0240002544093012
B1338054655404N00949679EA0240802552092012
B1338094655395N00949770EA0241102560089012
B1338134655433N00949837EA0241002552094008
K133813342011
B1338174655487N00949862EA0240902552093008
B1338214655533N00949825EA0241002552091008
B1338254655529N00949741EA0241002552094008
B1338294655475N00949675EA0241702560098008
B1338334655425N00949625EA0243402584080008
K133833332010
B1338374655375N00949587EA0243202576084008
B1338414655308N00949566EA0242302568089008
B1338454655241N00949550EA0242102568092004
B1338494655166N00949550EA0242402568094008
B1338534655100N00949583EA0242902576090008
K133853336012
B1338574655050N00949654EA0243202576094008
B1339014655033N00949750EA0243602584094004
B1339054655033N00949850EA0243302576100008
B1339094655020N00949954EA0242102568106004
B1339134655000N00950066EA0241002560115004
K133913000007
B1339174654975N00950187EA0240102544121008
B1339214654954N00950308EA0239802544125008
B1339254654929N00950433EA0239602544123028
B1339294654908N00950558EA0239402536125016
B1339334654891N00950691EA0239102536124016
K133933180005
B1339374654866N00950825EA0238502528129024
B1339414654845N00950962EA0238502528128016
B1339454654825N00951095EA0238702536120016
B1339494654804N00951225EA0238002528122016
B1339534654783N00951362EA0237702520131016
K133953180011
B1339574654762N00951491EA0238502528125016
B1340014654741N00951604EA0239602544110016
B1340054654716N00951712EA0239002536108004
B1340094654691N00951820EA0237702520112008
B1340134654662N00951941EA0234902496124012
K134013180005
B1340174654629N00952070EA0233302480140008
B1340214654595N00952212EA0232802472143028
B1340254654566N00952350EA0232802472137020
B1340294654541N00952487EA0232502464132020
B1340334654516N00952620EA0232702472128024
K134033180007
B1340374654487N00952737EA0233202480118020
B1340414654458N00952850EA0233202472112020
B1340454654420N00952966EA0232002464125016
B1340494654387N00953087EA0232202456132016
B1340534654354N00953187EA0236102504104016
K134053180002
B1340574654329N00953275EA0235502504097016
B1341014654300N00953375EA0233602480113004
B1341054654266N00953487EA0231402456121008
B1341094654225N00953604EA0230602448125008
B1341134654187N00953725EA0229702440122008
K134113180005
B1341174654145N00953841EA0228102424120028
B1341214654108N00953962EA0227102408121016
B1341254654066N00954087EA0225402400125016
B1341294654008N00954200EA0224202384129024
B1341334653925N00954283EA0224002376134016
K134133180011
B1341374653837N00954329EA0224402384130016
B1341414653750N00954366EA0225402400123020
B1341454653666N00954395EA0226102408115016
B1341494653583N00954429EA0226502408113004
B1341534653500N00954466EA0228002424118012
K134153180010
B1341574653441N00954533EA0231802456104028
B1342014653391N00954604EA0233202472104016
B1342054653329N00954583EA0234002472115016
B1342094653345N00954495EA0236102496108024
B1342134653404N00954520EA0236602504107016
K134213180010
B1342174653395N00954625EA0238302520109016
B1342214653325N00954616EA0240502528110016
B1342254653333N00954537EA0242002560098016
B1342294653383N00954570EA0241902560101016
B1342334653379N00954670EA0244002584090016
K134233320011
B1342374653320N00954700EA0245302592095000
B1342414653275N00954650EA0246302616086008
B1342454653287N00954587EA0245402608095012
B1342494653341N00954583EA0245302600105008
B1342534653387N00954662EA0246402616099024
K134253304021
B1342574653366N00954762EA0247902624106016
B1343014653291N00954762EA0250302632107016
B1343054653316N00954691EA0250802648105020
B1343094653362N00954754EA0251902656097000
B1343134653337N00954837EA0253902680089008
K134313304017
B1343174653270N00954850EA0255002688104012
B1343214653237N00954775EA0255902704108008
B1343254653283N00954741EA0256402704099028
B1343294653312N00954825EA0256902712100020
B1343334653270N00954912EA0259102736104000
K134333300018
B1343374653204N00954904EA0259002736100016
B1343414653187N00954829EA0258702728095012
B1343454653225N00954775EA0257302720108008
B1343494653287N00954812EA0257202720113028
B1343534653316N00954912EA0257902728109020
K134353306019
B1343574653304N00955029EA0259802752112016
B1344014653266N00955112EA0262102768101024
B1344054653204N00955108EA0263102776104000
B1344094653208N00955016EA0264302792116008
B1344134653275N00955054EA0265802808108028
K134413260009
B1344174653262N00955154EA0267702824104016
B1344214653191N00955133EA0269202840107020
B1344254653204N00955045EA0271402856106024
B1344294653262N00955079EA0271402864107000
B1344334653241N00955179EA0273002880111008
K134433322006
B1344374653170N00955170EA0274402896121028
B1344414653187N00955079EA0275202904116016
B1344454653254N00955125EA0276002904122016
B1344494653204N00955212EA0277102920124024
B1344534653133N00955279EA0276102912128016
K134453180010
B1344574653062N00955379EA0274302896136016
B1345014653000N00955508EA0272602880148020
B1345054652945N00955650EA0273402880156016
B1345094652895N00955791EA0275402904148036
B1345134652862N00955933EA0275702912149028
K134513180010
B1345174652829N00956075EA0276002920147016
B1345214652787N00956216EA0276002920144024
B1345254652750N00956358EA0276002920146016
B1345294652716N00956500EA0276202920146016
B1345334652675N00956641EA0276202920141016
K134533180004
B1345374652633N00956779EA0276202912136016
B1345414652587N00956908EA0276002912130020
B1345454652545N00957037EA0275002904127016
B1345494652504N00957170EA0275002904130020
B1345534652462N00957295EA0275702912122020
K134553180012
B1345574652425N00957420EA0275902912126016
B1346014652375N00957533EA0275402912121016
B1346054652312N00957633EA0274702904127016
B1346094652237N00957725EA0273902896131016
B1346134652158N00957808EA0273202888137016
K134613180007
B1346174652079N00957887EA0273102888135016
B1346214652000N00957966EA0271402872134016
B1346254651912N00958050EA0271002864136016
B1346294651825N00958129EA0271002864134020
B1346334651737N00958212EA0271402872131016
K134633180012
B1346374651654N00958291EA0272302880135020
B1346414651583N00958362EA0275002912115020
B1346454651520N00958425EA0275002912106000
B1346494651454N00958491EA0273302896116008
B1346534651379N00958566EA0272002880122012
K134653180005
B1346574651300N00958637EA0271802872125008
B1347014651220N00958708EA0271502872121028
B1347054651141N00958779EA0271102872124020
B1347094651066N00958850EA0271102864128016
B1347134650991N00958916EA0271202872124024
K134713180005
B1347174650908N00958983EA0269802856137016
B1347214650820N00959050EA0268802848141016
B1347254650729N00959120EA0268802848132016
B1347294650645N00959195EA0269102848132016
B1347334650562N00959279EA0269502856127020
K134733180009
B1347374650487N00959358EA0269702856122016
B1347414650416N00959437EA0270202864120004
B1347454650345N00959520EA0270802864119012
B1347494650275N00959612EA0271602872118012
B1347534650212N00959695EA0274102904103008
K134753180015
B1347574650150N00959775EA0276002920101012
B1348014650095N00959850EA0278502944089012
B1348054650041N00959908EA0278902944097012
B1348094649975N00959879EA0278802944096012
B1348134649962N00959779EA0278902944103012
K134813180012
B1348174650008N00959720EA0279402952095012
B1348214650062N00959762EA0279402952098012
B1348254650075N00959866EA0279802960098012
B1348294650070N00959970EA0280502968093008
B1348334650058N01000075EA0279402952104008
K134833180012
B1348374650050N01000183EA0279402960108012
B1348414650045N01000287EA0281202976108008
B1348454650045N01000387EA0281602984096012
B1348494650050N01000491EA0280302968100012
B1348534650054N01000608EA0278302944115012
K134853180012
B1348574650050N01000741EA0277502936121012
B1349014650037N01000870EA0277702936120028
B1349054650016N01001000EA0277502936118020
B1349094649991N01001125EA0278402944111020
B1349134649966N01001241EA0278802952108024
K134913180011
B1349174649941N01001354EA0279202952106004
B1349214649925N01001458EA0280302968100012
B1349254649908N01001562EA0280902968094012
B1349294649891N01001670EA0279802960105008
B1349334649870N01001791EA0278802944113012
K134933180008
B1349374649858N01001920EA0278902944112012
B1349414649845N01002045EA0279402952112028
B1349454649825N01002150EA0281602976091020
B1349494649795N01002245EA0280902960101000
B1349534649725N01002316EA0279302952113016
K134953180012
B1349574649654N01002383EA0277502936110024
B1350014649595N01002483EA0276302912119012
B1350054649525N01002562EA0275402912111016
B1350094649454N01002520EA0271702888125020
B1350134649429N01002400EA0269602856136016
K135013180012
B1350174649437N01002270EA0269302848136016
B1350214649445N01002145EA0269202848137020
B1350254649458N01002020EA0269302848129016
B1350294649470N01001904EA0270202856125028
B1350334649487N01001800EA0271302872104024
K135033180012
B1350374649504N01001695EA0270102856117024
B1350414649525N01001579EA0270602856126024
B1350454649537N01001479EA0274002896104016
B1350494649550N01001391EA0274402896093020
B1350534649570N01001308EA0272502880102000
K135053000008
B1350574649587N01001212EA0271202872108008
B1351014649595N01001104EA0270402864114024
B1351054649612N01001000EA0270602864105012
B1351094649620N01000891EA0270802864104000
B1351134649633N01000787EA0271902872101012
K135113000004
B1351174649641N01000691EA0273302888102012
B1351214649645N01000608EA0274102896090008
B1351254649654N01000525EA0271202880099012
B1351294649679N01000425EA0268802848120012
B1351334649704N01000312EA0267202824132028
K135133000011
B1351374649725N01000200EA0267102824120020
B1351414649745N01000091EA0266702824121020
B1351454649762N00959991EA0267402832105024
B1351494649770N00959887EA0266202816113020
B1351534649787N00959779EA0265202808113020
K135153000010
B1351574649808N00959670EA0265002800122016
B1352014649833N00959570EA0265502808117016
B1352054649862N00959479EA0264602800115016
B1352094649895N00959395EA0264502800114016
B1352134649933N00959316EA0265702800116020
K135213000019
B1352174649979N00959270EA0268302840089016
B1352214650025N00959245EA0268602840090008
B1352254650083N00959258EA0267802840093016
B1352294650150N00959283EA0267402824108012
B1352334650220N00959258EA0267902832116008
K135233000019
B1352374650287N00959250EA0269602848107028
B1352414650308N00959350EA0269702848106020
B1352454650241N00959404EA0271302864101016
B1352494650204N00959341EA0272902880093024
B1352534650241N00959283EA0273402888093000
K135253000019
B1352574650291N00959325EA0274402904086008
B1353014650283N00959420EA0275002912087012
B1353054650225N00959470EA0275202912095008
B1353094650170N00959425EA0276702928099008
B1353134650187N00959350EA0276702928096008
K135313278014
B1353174650245N00959350EA0278202936093012
B1353214650270N00959433EA0278702952088008
B1353254650241N00959525EA0279402952091008
B1353294650183N00959550EA0280002960087008
B1353334650137N00959487EA0280502968101008
K135333290016
B1353374650158N00959408EA0281402976096008
B1353414650212N00959404EA0282202984093008
B1353454650245N00959491EA0282202984094008
B1353494650216N00959579EA0283302992094008
B1353534650150N00959583EA0283902992097008
K135353292013
B1353574650129N00959504EA0283903000097012
B1354014650175N00959462EA0284803008093008
B1354054650220N00959516EA0285703016085012
B1354094650216N00959612EA0285703016088012
B1354134650162N00959687EA0286203024089012
K135413286015
B1354174650095N00959687EA0286203024093012
B1354214650045N00959616EA0286103016106008
B1354254650070N00959529EA0287203032109008
B1354294650129N00959558EA0288203040098012
B1354334650141N00959654EA0290003064082008
K135433292017
B1354374650100N00959729EA0289803072079012
B1354414650029N00959750EA0289803056091012
B1354454649983N00959691EA0290303072087008
B1354494649987N00959612EA0291003072093008
B1354534650033N00959575EA0291503080097008
K135453300019
B1354574650070N00959650EA0291403080099008
B1355014650029N00959745EA0291403080094008
B1355054649954N00959745EA0291803080098008
B1355094649933N00959658EA0291803088105028
B1355134649966N00959591EA0293203096099016
K135513316019
B1355174650020N00959625EA0293203096095016
B1355214650045N00959720EA0293403104095024
B1355254650054N00959837EA0293103096099000
B1355294650054N00959950EA0293403104101008
B1355334650058N01000062EA0293803112093012
K135533000019
B1355374650066N01000175EA0292403088106008
B1355414650075N01000291EA0293403088111008
B1355454650091N01000387EA0296503136086008
B1355494650108N01000475EA0296803136083012
B1355534650104N01000570EA0297003136083008
K135553000019
B1355574650062N01000645EA0297003136086012
B1356014649995N01000645EA0296403128094012
B1356054649966N01000562EA0296503128097004
B1356094650000N01000495EA0297203144085008
B1356134650066N01000504EA0297803144098012
K135613000019
B1356174650112N01000579EA0298803152093008
B1356214650100N01000675EA0299203160084012
B1356254650045N01000729EA0298803152090012
B1356294649975N01000720EA0297603144092008
B1356334649900N01000725EA0296503128104008
K135633000019
B1356374649816N01000754EA0298203136117024
B1356414649754N01000779EA0301803184083016
B1356454649695N01000758EA0302203192088000
B1356494649675N01000675EA0303303192095012
B1356534649725N01000650EA0303103200094012
K135653000019
B1356574649754N01000741EA0303503192103008
B1357014649704N01000800EA0304603216093012
B1357054649658N01000737EA0305103224097012
B1357094649695N01000670EA0306003224098012
B1357134649737N01000737EA0306003232099012
K135713330009
B1357174649712N01000825EA0307303240095028
B1357214649645N01000804EA0308403256089020
B1357254649641N01000720EA0309103264092016
B1357294649695N01000712EA0309003256096024
B1357334649716N01000808EA0309103256099016
K135733334013
B1357374649658N01000866EA0310203272096016
B1357414649608N01000808EA0312003288097016
B1357454649641N01000750EA0312003288098016
B1357494649691N01000812EA0311303280100016
B1357534649666N01000916EA0311303288109016
K135753334012
B1357574649595N01000970EA0311703288106016
B1358014649516N01001016EA0310703280111016
B1358054649425N01001054EA0310003272122016
B1358094649337N01001091EA0310003272123016
B1358134649245N01001129EA0309803272125016
K135813000019
B1358174649154N01001170EA0308103256132016
B1358214649062N01001208EA0307603248130020
B1358254648966N01001241EA0306703240128016
B1358294648870N01001275EA0306403240129016
B1358334648779N01001304EA0306203232128016
K135833180008
B1358374648679N01001333EA0306803240122016
B1358414648591N01001366EA0309103264113016
B1358454648495N01001391EA0306403232121020
B1358494648387N01001420EA0304203216128016
B1358534648283N01001462EA0302803200130024
K135853180015
B1358574648183N01001512EA0302603192131024
B1359014648083N01001566EA0301903192127016
B1359054647987N01001620EA0300003176133020
B1359094647891N01001679EA0299403168132020
B1359134647795N01001729EA0299203160127016
K135913180019
B1359174647704N01001779EA0299103160124020
B1359214647612N01001833EA0298303160124020
B1359254647520N01001891EA0298203152128000
B1359294647425N01001945EA0297503144127008
B1359334647329N01002000EA0297403144128028
K135933180019
B1359374647237N01002062EA0297803152126016
B1359414647150N01002120EA0299403160119016
B1359454647066N01002179EA0301103176115024
B1359494646987N01002241EA0302203192104004
B1359534646912N01002308EA0302703200104008
K135953180020
B1359574646841N01002383EA0302203192111012
B1400014646762N01002454EA0302203192110008
B1400054646691N01002529EA0302903200112012
B1400094646629N01002600EA0305703232090012
B1400134646570N01002670EA0304703216094012
K140013180017
B1400174646512N01002750EA0303103200108012
B1400214646458N01002850EA0304603208115028
B1400254646445N01002958EA0306003224103020
B1400294646450N01003058EA0305803224099016
B1400334646416N01003145EA0305003224097024
K140033180015
B1400374646366N01003229EA0304703216107000
B1400414646308N01003304EA0305403216102008
B1400454646258N01003375EA0306103232091028
B1400494646204N01003445EA0306103224100016
B1400534646150N01003516EA0306803240090000
K140053180007
B1400574646095N01003591EA0307403240096016
B1401014646037N01003666EA0309703264094008
B1401054645987N01003733EA0312203288086004
B1401094645979N01003825EA0312003288096012
B1401134646037N01003862EA0312703288100008
K140113180011
B1401174646066N01003800EA0312703296091012
B1401214646037N01003725EA0312703296094012
B1401254645966N01003695EA0312703296103012
B1401294645891N01003708EA0313003304096012
B1401334645829N01003770EA0312803296103012
K140133316010
B1401374645770N01003858EA0311603288115012
B1401414645712N01003954EA0310703280121012
B1401454645650N01004062EA0309803264126012
B1401494645587N01004170EA0309203264129028
B1401534645525N01004283EA0307603248127020
K140153180011
B1401574645462N01004400EA0306203232132020
B1402014645395N01004520EA0305003216135024
B1402054645329N01004637EA0304703216135020
B1402094645262N01004754EA0303603200136020
B1402134645195N01004870EA0303103200137020
K140213180013
B1402174645133N01004991EA0304603208130020
B1402214645075N01005104EA0305603224122020
B1402254645016N01005216EA0305503224119020
B1402294644958N01005329EA0304803216131020
B1402334644895N01005437EA0306603224126020
K140233180012
B1402374644841N01005533EA0308803248109016
B1402414644787N01005620EA0310003264109016
B1402454644741N01005704EA0312403288103000
B1402494644695N01005775EA0313503312087008
B1402534644654N01005845EA0313103304094012
K140253180003
B1402574644604N01005920EA0311603288101008
B1403014644545N01006004EA0309903264108008
B1403054644487N01006095EA0309203256113008
B1403094644429N01006191EA0310003264109008
B1403134644375N01006283EA0311803280106008
K140313180010
B1403174644329N01006366EA0314103304091012
B1403214644287N01006445EA0315603328087008
B1403254644245N01006525EA0315903336089012
B1403294644200N01006612EA0315603328098012
B1403334644150N01006700EA0316303336098008
K140333180010
B1403374644083N01006762EA0316803344104008
B1403414644020N01006812EA0318003352092008
B1403454643958N01006858EA0318303352091008
B1403494643895N01006900EA0318303360089008
B1403534643829N01006945EA0318803360091008
K140353180010
B1403574643762N01006987EA0319803376087008
B1404014643695N01007025EA0320503384091008
B1404054643633N01007066EA0321703392086008
B1404094643570N01007108EA0322203400085008
B1404134643512N01007158EA0322503400088008
K140413180011
B1404174643454N01007212EA0322803408088008
B1404214643387N01007270EA0322803408097008
B1404254643320N01007341EA0324003408109008
B1404294643245N01007366EA0324803424098024
B1404334643208N01007283EA0324603424104016
K140433180011
B1404374643241N01007212EA0326303432101016
B1404414643291N01007245EA0327603456090020
B1404454643291N01007337EA0327603456094000
B1404494643241N01007400EA0328203456089008
B1404534643175N01007408EA0328203456092008
K140453346009
B1404574643108N01007379EA0327003448098004
B1405014643029N01007354EA0325203432105012
B1405054642954N01007408EA0324103424113008
B1405094642891N01007495EA0324203416114012
B1405134642837N01007587EA0324203416111012
K140513180011
B1405174642779N01007675EA0325703424109028
B1405214642737N01007754EA0326803448091020
B1405254642691N01007845EA0324803432102000
B1405294642641N01007945EA0324003416109016
B1405334642591N01008050EA0325003424110028
K140533180009
B1405374642545N01008150EA0326603440099016
B1405414642495N01008233EA0326803448090016
B1405454642445N01008329EA0326303432109024
B1405494642395N01008425EA0328803456097016
B1405534642358N01008504EA0329303472081016
K140553180012
B1405574642312N01008595EA0327103448110000
B1406014642262N01008704EA0325403432111008
B1406054642208N01008816EA0324103416115008
B1406094642154N01008933EA0323103400123004
B1406134642104N01009045EA0323603416112012
K140613180016
B1406174642058N01009154EA0322903408112008
B1406214642008N01009270EA0322103392117028
B1406254641962N01009387EA0321903392111020
B1406294641920N01009495EA0321703384113000
B1406334641879N01009616EA0320703376119016
K140633180013
B1406374641837N01009733EA0320003368120012
B1406414641791N01009854EA0317903352123008
B1406454641745N01009970EA0317203344130028
B1406494641700N01010083EA0318003352121020
B1406534641650N01010187EA0319203360113020
K140653180005
B1406574641604N01010279EA0320203376100024
B1407014641562N01010370EA0321103384097016
B1407054641516N01010458EA0321303392093016
B1407094641470N01010550EA0321603392096000
B1407134641429N01010637EA0322603400093008
K140713180011
B1407174641387N01010712EA0323603408087008
B1407214641345N01010787EA0324103416088004
B1407254641283N01010825EA0324003408094008
B1407294641216N01010770EA0323503408098008
B1407334641220N01010670EA0323103400105024
K140733180007
B1407374641283N01010666EA0323303400103016
B1407414641291N01010766EA0323703408106020
B1407454641225N01010800EA0324803416095024
B1407494641183N01010720EA0324803416099020
B1407534641225N01010658EA0324703416095020
K140753354013
B1407574641279N01010700EA0324703424097020
B1408014641316N01010775EA0325903432093020
B1408054641312N01010858EA0327203448077004
B1408094641254N01010904EA0325903440097012
B1408134641187N01010850EA0325903440100012
K140813352012
B1408174641200N01010762EA0326103440097008
B1408214641258N01010762EA0326503440096028
B1408254641308N01010804EA0325403432098020
B1408294641375N01010837EA0324703424111000
B1408334641441N01010845EA0324803424107016
K140833180007
B1408374641504N01010845EA0325103432096028
B1408414641566N01010833EA0323503424106016
B1408454641641N01010816EA0321103392125000
B1408494641720N01010795EA0321303392123016
B1408534641787N01010770EA0322803408110028
K140853000017
B1408574641850N01010741EA0323103416100016
B1409014641920N01010708EA0321303392109008
B1409054641991N01010666EA0320903384115016
B1409094642062N01010616EA0320803384111012
B1409134642137N01010566EA0321603384116008
K140913000007
B1409174642195N01010520EA0323303408097028
B1409214642254N01010479EA0322603408101020
B1409254642320N01010433EA0322003392109000
B1409294642383N01010383EA0322003392110016
B1409334642450N01010333EA0322003392115028
K140933000011
B1409374642512N01010291EA0322203400107016
B1409414642570N01010245EA0322603400107000
B1409454642629N01010200EA0323703416103016
B1409494642691N01010150EA0324803424096012
B1409534642745N01010100EA0325503432095008
K140953000009
B1409574642808N01010041EA0326803440097012
B1410014642866N01009987EA0328903464101012
B1410054642929N01009954EA0329303464097008
B1410094642995N01009991EA0326503448102008
B1410134643066N01009975EA0324803424115012
K141013000005
B1410174643133N01009904EA0323703408117008
B1410214643187N01009820EA0323703416113028
B1410254643237N01009737EA0322903400120020
B1410294643291N01009645EA0321803392127016
B1410334643350N01009545EA0321703392128024
K141033000009
B1410374643404N01009454EA0324303416119016
B1410414643445N01009370EA0326103440098016
B1410454643487N01009295EA0325903440099004
B1410494643537N01009212EA0324803416116008
B1410534643587N01009129EA0325403432114028
K141053000009
B1410574643633N01009058EA0326603448093016
B1411014643679N01008987EA0325403432104000
B1411054643729N01008912EA0324803416116016
B1411094643783N01008841EA0325003424109028
B1411134643833N01008770EA0324803424112016
K141113000013
B1411174643887N01008695EA0324403416115016
B1411214643937N01008620EA0322903400116024
B1411254643995N01008537EA0320803384124000
B1411294644050N01008450EA0320103376125008
B1411334644100N01008354EA0319003360126028
K141133000015
B1411374644150N01008258EA0318503352124016
B1411414644195N01008162EA0318303352116016
B1411454644241N01008070EA0317903352110024
B1411494644279N01007975EA0317303344111004
B1411534644320N01007875EA0316003336111008
K141153000006
B1411574644366N01007775EA0313903312122028
B1412014644412N01007658EA0312703288135016
B1412054644450N01007562EA0317503352111016
B1412094644479N01007500EA0319103360087024
B1412134644508N01007425EA0317903352099008
K141213000014
B1412174644545N01007337EA0317703344106012
B1412214644575N01007245EA0319403360099012
B1412254644562N01007154EA0321303376105008
B1412294644545N01007066EA0322703400099012
B1412334644600N01007033EA0323703408098012
K141233000010
B1412374644637N01007116EA0324803416092028
B1412414644591N01007191EA0325103424099020
B1412454644541N01007150EA0326103432092016
B1412494644562N01007075EA0327403448097024
B1412534644620N01007100EA0328903456090000
K141253262012
B1412574644629N01007195EA0329503472085008
B1413014644579N01007254EA0329603472091012
B1413054644537N01007204EA0330103480091008
B1413094644570N01007141EA0330603480096008
B1413134644625N01007204EA0331803496091008
K141313262013
B1413174644595N01007287EA0331903496092028
B1413214644537N01007270EA0332803504084016
B1413254644537N01007191EA0333103504093004
B1413294644595N01007175EA0335303528090016
B1413334644612N01007266EA0335003520089008
K141333282010
B1413374644558N01007320EA0334103504103008
B1413414644516N01007250EA0335303520097028
B1413454644508N01007166EA0336603536089016
B1413494644550N01007108EA0337903544094000
B1413534644608N01007166EA0338503552097016
K141353262009
B1413574644587N01007262EA0338903568092024
B1414014644525N01007245EA0339603568101012
B1414054644537N01007166EA0341403592093000
B1414094644595N01007195EA0341903600091012
B1414134644595N01007295EA0342203600087028
K141413258013
B1414174644533N01007320EA0341903600098016
B1414214644504N01007250EA0343403616093000
B1414254644545N01007208EA0344603624086016
B1414294644595N01007270EA0344203624095012
B1414334644583N01007370EA0344803632082008
K141433280013
B1414374644525N01007404EA0345203632088012
B1414414644470N01007362EA0345203632090012
B1414454644441N01007287EA0345903648094012
B1414494644475N01007220EA0348403664096012
B1414534644525N01007279EA0348903672096028
K141453272014
B1414574644483N01007358EA0349503680094020
B1415014644437N01007300EA0351703688106016
B1415054644487N01007266EA0353603712093024
B1415094644558N01007304EA0352103704111016
B1415134644637N01007275EA0349803688126016
K141513000010
B1415174644687N01007162EA0349303672138016
B1415214644712N01007025EA0348003664144016
B1415254644737N01006879EA0347103656148020
B1415294644762N01006733EA0346503648152016
B1415334644791N01006583EA0346503648151028
K141533000010
B1415374644820N01006441EA0347703656158024
B1415414644858N01006291EA0347503656159028
B1415454644891N01006141EA0347403656168028
B1415494644929N01005987EA0347103648163028
B1415534644962N01005837EA0347103656155028
K141553000012
B1415574644995N01005683EA0347703656157028
B1416014645025N01005533EA0348403672158028
B1416054645054N01005383EA0347303664156020
B1416094645083N01005225EA0345603640167024
B1416134645108N01005062EA0344103624168024
K141613000013
B1416174645133N01004900EA0343203616168024
B1416214645158N01004741EA0342903608168024
B1416254645183N01004583EA0342003600171024
B1416294645208N01004425EA0340803584173024
B1416334645233N01004270EA0340503584172024
K141633000020
B1416374645250N01004125EA0342903600154024
B1416414645266N01004000EA0344103624141024
B1416454645279N01003879EA0344103616141024
B1416494645295N01003758EA0344003616138024
B1416534645308N01003637EA0344003624135016
K141653000026
B1416574645320N01003520EA0344103624132020
B1417014645333N01003404EA0344103616132016
B1417054645345N01003287EA0343203608133016
B1417094645362N01003170EA0342303600135016
B1417134645379N01003054EA0341503592133016
K141713000026
B1417174645395N01002941EA0341103592133016
B1417214645412N01002825EA0340003584133016
B1417254645425N01002708EA0338703568137016
B1417294645441N01002587EA0337903552135016
B1417334645458N01002470EA0337903552131016
K141733000025
B1417374645470N01002358EA0337903552124016
B1417414645483N01002258EA0338503560115016
B1417454645495N01002166EA0337903560109016
B1417494645504N01002062EA0334503528129000
B1417534645520N01001941EA0332503504141008
K141753000028
B1417574645533N01001816EA0331003488143028
B1418014645545N01001687EA0329903472143016
B1418054645562N01001562EA0328703456140016
B1418094645575N01001441EA0327703456138024
B1418134645591N01001325EA0327003448136020
K141813000026
B1418174645608N01001208EA0325903432138016
B1418214645625N01001091EA0324703416136020
B1418254645641N01000970EA0323703408134020
B1418294645662N01000850EA0322903400141016
B1418334645679N01000733EA0322503400133016
K141833000024
B1418374645695N01000616EA0322603400129016
B1418414645712N01000504EA0322603400128016
B1418454645725N01000387EA0322503400126020
B1418494645741N01000275EA0321903392127016
B1418534645750N01000162EA0321703392128016
K141853000022
B1418574645762N01000050EA0320603384128016
B1419014645775N00959933EA0319203368133016
B1419054645791N00959816EA0318503360135016
B1419094645808N00959695EA0317503352137016
B1419134645825N00959575EA0317203344135016
K141913000021
B1419174645841N00959458EA0317203352131020
B1419214645858N00959337EA0316103336133016
B1419254645879N00959212EA0316003328139020
B1419294645891N00959095EA0317303344130020
B1419334645904N00958987EA0317403352122020
K141933000021
B1419374645916N00958875EA0315703328132020
B1419414645929N00958754EA0314503320135016
B1419454645941N00958633EA0313403304139016
B1419494645954N00958512EA0313003296140016
B1419534645970N00958395EA0313503304133016
K141953000024
B1419574645983N00958287EA0314703320118016
B1420014645995N00958179EA0315103328120016
B1420054646004N00958075EA0315103320121008
B1420094646016N00957970EA0314603320123012
B1420134646029N00957866EA0315003320119012
K142013000022
B1420174646041N00957762EA0315003320118008
B1420214646054N00957658EA0315003320120012
B1420254646066N00957558EA0315003328115012
B1420294646079N00957462EA0315403328112012
B1420334646095N00957362EA0315003320117012
K142033000023
B1420374646108N00957262EA0315003320116012
B1420414646120N00957162EA0315003328116012
B1420454646137N00957062EA0315003320115012
B1420494646150N00956962EA0315403328114012
B1420534646158N00956870EA0316203336107012
K142053000022
B1420574646170N00956779EA0317003344111012
B1421014646175N00956695EA0318803360101012
B1421054646175N00956620EA0319403376084012
B1421094646179N00956545EA0317703352104012
B1421134646187N00956445EA0316303336115012
K142113000025
B1421174646195N00956345EA0315803336120008
B1421214646208N00956237EA0315403328123008
B1421254646216N00956129EA0314503320129028
B1421294646229N00956012EA0313703304137016
B1421334646241N00955895EA0313503304132016
K142133000025
B1421374646254N00955783EA0313103304129024
B1421414646266N00955670EA0311503288131016
B1421454646283N00955554EA0310003272135016
B1421494646304N00955441EA0309503264131016
B1421534646325N00955329EA0308703264128016
K142153000023
B1421574646350N00955216EA0307103248135020
B1422014646366N00955095EA0306203232137016
B1422054646379N00954979EA0306003232131020
B1422094646395N00954862EA0305803232130020
B1422134646408N00954754EA0307203240120020
K142213000022
B1422174646412N00954662EA0308203256108020
B1422214646416N00954566EA0307203248110004
B1422254646420N00954458EA0305503224121012
B1422294646433N00954345EA0304403216128012
B1422334646445N00954229EA0302803200134008
K142233000020
B1422374646458N00954104EA0302403192137028
B1422414646475N00953987EA0303303200126020
B1422454646487N00953879EA0302803200124000
B1422494646500N00953766EA0301903192125016
B1422534646512N00953654EA0300903176127028
K142253000019
B1422574646525N00953537EA0299803168131016
B1423014646533N00953416EA0299203160133016
B1423054646541N00953300EA0298903160131024
B1423094646550N00953183EA0298103152126016
B1423134646558N00953066EA0297103136130016
K142313000018
B1423174646570N00952941EA0296003128134016
B1423214646583N00952820EA0294903120133016
B1423254646600N00952695EA0294203112130016
B1423294646616N00952570EA0293503104130016
B1423334646637N00952450EA0293103096129020
K142333000012
B1423374646662N00952333EA0292903096125016
B1423414646687N00952220EA0292603096121016
B1423454646716N00952112EA0292003088124016
B1423494646750N00952000EA0291403080125016
B1423534646775N00951887EA0291503080120016
K142353000009
B1423574646791N00951779EA0291603088112000
B1424014646808N00951670EA0291503088111008
B1424054646825N00951566EA0290903080112012
B1424094646841N00951458EA0290803072115008
B1424134646862N00951350EA0290803072111012
K142413000007
B1424174646875N00951254EA0291203080103012
B1424214646891N00951154EA0290903080103012
B1424254646912N00951054EA0290203072111012
B1424294646937N00950945EA0289303064114012
B1424334646966N00950837EA0288803056120012
K142433000008
B1424374646995N00950737EA0289803064113012
B1424414647020N00950650EA0290703080098012
B1424454647050N00950562EA0290703072101012
B1424494647083N00950470EA0289803064111012
B1424534647120N00950375EA0288703048119008
K142453000011
B1424574647158N00950275EA0287903048124008
B1425014647200N00950175EA0289203056120028
B1425054647237N00950095EA0292203088093016
B1425094647270N00950029EA0292503104091000
B1425134647304N00949954EA0290903080106016
K142513000015
B1425174647341N00949870EA0289703064114008
B1425214647387N00949779EA0288803056119004
B1425254647429N00949687EA0288003048121008
B1425294647470N00949595EA0287703048119008
B1425334647512N00949504EA0287503040117012
K142533000014
B1425374647550N00949408EA0286903032119008
B1425414647591N00949316EA0286503032120012
B1425454647625N00949220EA0285703024120012
B1425494647666N00949120EA0284803016122028
B1425534647708N00949020EA0284603008125020
K142553000014
B1425574647745N00948929EA0284603016121016
B1426014647783N00948845EA0285303016109024
B1426054647820N00948762EA0284803016108000
B1426094647862N00948683EA0284303008111008
B1426134647900N00948604EA0283703000114012
K142613000017
B1426174647941N00948520EA0282702992116008
B1426214647979N00948433EA0282402984115028
B1426254648020N00948345EA0281402976116020
B1426294648054N00948254EA0280902968115000
B1426334648091N00948162EA0280702968113016
K142633000015
B1426374648125N00948075EA0280402968109012
B1426414648154N00947987EA0280202960108008
B1426454648183N00947891EA0279102952117012
B1426494648212N00947791EA0279102952117012
B1426534648237N00947704EA0279902968106012
K142653000015
B1426574648270N00947625EA0279402960108012
B1427014648308N00947545EA0278202936115012
B1427054648354N00947462EA0277702936119012
B1427094648404N00947383EA0277502936120028
B1427134648458N00947304EA0277202928120020
K142713000016
B1427174648516N00947233EA0277802936118000
B1427214648575N00947170EA0278802944110016
B1427254648625N00947112EA0279202952100012
B1427294648679N00947062EA0279602952106008
B1427334648733N00947012EA0281002968098012
K142733000012
B1427374648783N00946970EA0282102984089012
B1427414648833N00946925EA0282502984088012
B1427454648879N00946879EA0282602984087012
B1427494648933N00946837EA0283302992093008
B1427534648987N00946804EA0282502984096008
K142753000010
B1427574649045N00946766EA0281602976096008
B1428014649108N00946725EA0281102968105008
B1428054649170N00946675EA0281202968110008
B1428094649229N00946612EA0281402976110008
B1428134649270N00946525EA0281302968116012
K142813000009
B1428174649308N00946425EA0280002960125008
B1428214649354N00946329EA0279802952127028
